{
  "_format": "hh-sol-artifact-1",
  "contractName": "RiskRouter",
  "sourceName": "contracts/RiskRouter.sol",
  "abi": [
    {
      "inputs": [
        {
          "internalType": "address",
          "name": "validatorAddr",
          "type": "address"
        },
        {
          "internalType": "address",
          "name": "registryAddr",
          "type": "address"
        }
      ],
      "stateMutability": "nonpayable",
      "type": "constructor"
    },
    {
      "anonymous": false,
      "inputs": [
        {
          "indexed": true,
          "internalType": "uint256",
          "name": "agentId",
          "type": "uint256"
        },
        {
          "indexed": false,
          "internalType": "string",
          "name": "reason",
          "type": "string"
        }
      ],
      "name": "AgentPaused",
      "type": "event"
    },
    {
      "anonymous": false,
      "inputs": [
        {
          "indexed": true,
          "internalType": "uint256",
          "name": "agentId",
          "type": "uint256"
        },
        {
          "indexed": false,
          "internalType": "string",
          "name": "reason",
          "type": "string"
        }
      ],
      "name": "TradeBlocked",
      "type": "event"
    },
    {
      "anonymous": false,
      "inputs": [
        {
          "indexed": true,
          "internalType": "uint256",
          "name": "agentId",
          "type": "uint256"
        },
        {
          "indexed": false,
          "internalType": "string",
          "name": "pair",
          "type": "string"
        },
        {
          "indexed": false,
          "internalType": "bool",
          "name": "isBuy",
          "type": "bool"
        }
      ],
      "name": "TradePassed",
      "type": "event"
    },
    {
      "inputs": [],
      "name": "DAILY_LOSS_BPS",
      "outputs": [
        {
          "internalType": "uint256",
          "name": "",
          "type": "uint256"
        }
      ],
      "stateMutability": "view",
      "type": "function"
    },
    {
      "inputs": [],
      "name": "MAX_DRAWDOWN_BPS",
      "outputs": [
        {
          "internalType": "uint256",
          "name": "",
          "type": "uint256"
        }
      ],
      "stateMutability": "view",
      "type": "function"
    },
    {
      "inputs": [],
      "name": "MAX_POSITION_USD6",
      "outputs": [
        {
          "internalType": "uint256",
          "name": "",
          "type": "uint256"
        }
      ],
      "stateMutability": "view",
      "type": "function"
    },
    {
      "inputs": [
        {
          "internalType": "uint256",
          "name": "",
          "type": "uint256"
        }
      ],
      "name": "agentStates",
      "outputs": [
        {
          "internalType": "uint256",
          "name": "peakValueUsd6",
          "type": "uint256"
        },
        {
          "internalType": "uint256",
          "name": "currentValueUsd6",
          "type": "uint256"
        },
        {
          "internalType": "uint256",
          "name": "dailyStartValueUsd6",
          "type": "uint256"
        },
        {
          "internalType": "uint256",
          "name": "lastResetDay",
          "type": "uint256"
        },
        {
          "internalType": "bool",
          "name": "paused",
          "type": "bool"
        }
      ],
      "stateMutability": "view",
      "type": "function"
    },
    {
      "inputs": [
        {
          "internalType": "uint256",
          "name": "agentId",
          "type": "uint256"
        }
      ],
      "name": "getDrawdownBps",
      "outputs": [
        {
          "internalType": "uint256",
          "name": "",
          "type": "uint256"
        }
      ],
      "stateMutability": "view",
      "type": "function"
    },
    {
      "inputs": [
        {
          "internalType": "uint256",
          "name": "agentId",
          "type": "uint256"
        },
        {
          "internalType": "uint256",
          "name": "initialValueUsd6",
          "type": "uint256"
        }
      ],
      "name": "initAgent",
      "outputs": [],
      "stateMutability": "nonpayable",
      "type": "function"
    },
    {
      "inputs": [],
      "name": "registry",
      "outputs": [
        {
          "internalType": "contract AgentRegistry",
          "name": "",
          "type": "address"
        }
      ],
      "stateMutability": "view",
      "type": "function"
    },
    {
      "inputs": [
        {
          "components": [
            {
              "internalType": "uint256",
              "name": "agentId",
              "type": "uint256"
            },
            {
              "internalType": "string",
              "name": "pair",
              "type": "string"
            },
            {
              "internalType": "uint256",
              "name": "volume",
              "type": "uint256"
            },
            {
              "internalType": "bool",
              "name": "isBuy",
              "type": "bool"
            },
            {
              "internalType": "uint256",
              "name": "price",
              "type": "uint256"
            },
            {
              "internalType": "uint256",
              "name": "deadline",
              "type": "uint256"
            },
            {
              "internalType": "uint256",
              "name": "nonce",
              "type": "uint256"
            }
          ],
          "internalType": "struct TradeValidator.TradeIntent",
          "name": "intent",
          "type": "tuple"
        },
        {
          "internalType": "bytes",
          "name": "signature",
          "type": "bytes"
        },
        {
          "internalType": "uint256",
          "name": "currentPriceUsd6",
          "type": "uint256"
        }
      ],
      "name": "routeTrade",
      "outputs": [
        {
          "internalType": "bool",
          "name": "",
          "type": "bool"
        }
      ],
      "stateMutability": "nonpayable",
      "type": "function"
    },
    {
      "inputs": [
        {
          "internalType": "uint256",
          "name": "agentId",
          "type": "uint256"
        },
        {
          "internalType": "uint256",
          "name": "newValueUsd6",
          "type": "uint256"
        }
      ],
      "name": "updateAgentValue",
      "outputs": [],
      "stateMutability": "nonpayable",
      "type": "function"
    },
    {
      "inputs": [],
      "name": "validator",
      "outputs": [
        {
          "internalType": "contract TradeValidator",
          "name": "",
          "type": "address"
        }
      ],
      "stateMutability": "view",
      "type": "function"
    }
  ],
  "bytecode": "0x60c060405234801561000f575f80fd5b5060405161159a38038061159a833981810160405281019061003191906100fe565b8173ffffffffffffffffffffffffffffffffffffffff1660808173ffffffffffffffffffffffffffffffffffffffff16815250508073ffffffffffffffffffffffffffffffffffffffff1660a08173ffffffffffffffffffffffffffffffffffffffff1681525050505061013c565b5f80fd5b5f73ffffffffffffffffffffffffffffffffffffffff82169050919050565b5f6100cd826100a4565b9050919050565b6100dd816100c3565b81146100e7575f80fd5b50565b5f815190506100f8816100d4565b92915050565b5f8060408385031215610114576101136100a0565b5b5f610121858286016100ea565b9250506020610132858286016100ea565b9150509250929050565b60805160a05161142f61016b5f395f818161020401526103e101525f81816103880152610714015261142f5ff3fe608060405234801561000f575f80fd5b506004361061009c575f3560e01c80635b7af5c0116100645780635b7af5c01461014a5780637b1039991461016657806382f2815814610184578063a37155b4146101b4578063ab9c1e8a146101d25761009c565b8063070c0871146100a05780630d5c4799146100bc5780631661db51146100f05780633903df351461010e5780633a5381b51461012c575b5f80fd5b6100ba60048036038101906100b5919061088e565b610202565b005b6100d660048036038101906100d191906108cc565b61033d565b6040516100e7959493929190610920565b60405180910390f35b6100f861037a565b6040516101059190610971565b60405180910390f35b610116610380565b6040516101239190610971565b60405180910390f35b610134610386565b6040516101419190610a04565b60405180910390f35b610164600480360381019061015f919061088e565b6103aa565b005b61016e6103df565b60405161017b9190610a3d565b60405180910390f35b61019e600480360381019061019991906108cc565b610403565b6040516101ab9190610971565b60405180910390f35b6101bc610478565b6040516101c99190610971565b60405180910390f35b6101ec60048036038101906101e79190610d2f565b610480565b6040516101f99190610db7565b60405180910390f35b7f000000000000000000000000000000000000000000000000000000000000000073ffffffffffffffffffffffffffffffffffffffff166382afd23b836040518263ffffffff1660e01b815260040161025b9190610971565b602060405180830381865afa158015610276573d5f803e3d5ffd5b505050506040513d601f19601f8201168201806040525081019061029a9190610de4565b6102d9576040517f08c379a00000000000000000000000000000000000000000000000000000000081526004016102d090610e69565b60405180910390fd5b5f805f8481526020019081526020015f20905081815f018190555081816001018190555081816002018190555062015180426103159190610ee1565b81600301819055505f816004015f6101000a81548160ff021916908315150217905550505050565b5f602052805f5260405f205f91509050805f015490806001015490806002015490806003015490806004015f9054906101000a900460ff16905085565b6101f481565b6105dc81565b7f000000000000000000000000000000000000000000000000000000000000000081565b5f805f8481526020019081526020015f209050818160010181905550805f01548211156103da5781815f01819055505b505050565b7f000000000000000000000000000000000000000000000000000000000000000081565b5f805f808481526020019081526020015f2090505f815f01540361042a575f915050610473565b805f0154816001015410610441575f915050610473565b805f01546127108260010154835f015461045b9190610f11565b6104659190610f44565b61046f9190610ee1565b9150505b919050565b6302faf08081565b5f80845f015190505f805f8381526020019081526020015f2090505f62015180426104ab9190610ee1565b905080826003015410156104d057816001015482600201819055508082600301819055505b816004015f9054906101000a900460ff161561052757827f9ab51e0a0a51abb8ece149929e3524922f4e9bddc3927ee4e3682d487983c05260405161051490610fcf565b60405180910390a25f9350505050610843565b5f825f01541115610602575f825f01546127108460010154855f015461054d9190610f11565b6105579190610f44565b6105619190610ee1565b90506105dc8110610600576001836004015f6101000a81548160ff021916908315150217905550837f311507806c314bdacccaeace626259e039a1518627499885178071e6c0c92bc06040516105b690611037565b60405180910390a2837f9ab51e0a0a51abb8ece149929e3524922f4e9bddc3927ee4e3682d487983c0526040516105ec9061109f565b60405180910390a25f945050505050610843565b505b5f826002015411801561061c575081600201548260010154105b156106a1575f82600201546127108460010154856002015461063e9190610f11565b6106489190610f44565b6106529190610ee1565b90506101f4811061069f57837f9ab51e0a0a51abb8ece149929e3524922f4e9bddc3927ee4e3682d487983c05260405161068b90611107565b60405180910390a25f945050505050610843565b505b5f6305f5e1008689604001516106b79190610f44565b6106c19190610ee1565b90506302faf08081111561071157837f9ab51e0a0a51abb8ece149929e3524922f4e9bddc3927ee4e3682d487983c0526040516106fd9061116f565b60405180910390a25f945050505050610843565b5f7f000000000000000000000000000000000000000000000000000000000000000073ffffffffffffffffffffffffffffffffffffffff16632eff4b518a8a6040518363ffffffff1660e01b815260040161076d9291906112f6565b6020604051808303815f875af1158015610789573d5f803e3d5ffd5b505050506040513d601f19601f820116820180604052508101906107ad9190610de4565b9050806107f757847f9ab51e0a0a51abb8ece149929e3524922f4e9bddc3927ee4e3682d487983c0526040516107e290611375565b60405180910390a25f95505050505050610843565b847f2c564104ca875b255e40305396f642cfb506deb6bade7f99fe5aff3fc4cc35e98a602001518b606001516040516108319291906113cb565b60405180910390a26001955050505050505b9392505050565b5f604051905090565b5f80fd5b5f80fd5b5f819050919050565b61086d8161085b565b8114610877575f80fd5b50565b5f8135905061088881610864565b92915050565b5f80604083850312156108a4576108a3610853565b5b5f6108b18582860161087a565b92505060206108c28582860161087a565b9150509250929050565b5f602082840312156108e1576108e0610853565b5b5f6108ee8482850161087a565b91505092915050565b6109008161085b565b82525050565b5f8115159050919050565b61091a81610906565b82525050565b5f60a0820190506109335f8301886108f7565b61094060208301876108f7565b61094d60408301866108f7565b61095a60608301856108f7565b6109676080830184610911565b9695505050505050565b5f6020820190506109845f8301846108f7565b92915050565b5f73ffffffffffffffffffffffffffffffffffffffff82169050919050565b5f819050919050565b5f6109cc6109c76109c28461098a565b6109a9565b61098a565b9050919050565b5f6109dd826109b2565b9050919050565b5f6109ee826109d3565b9050919050565b6109fe816109e4565b82525050565b5f602082019050610a175f8301846109f5565b92915050565b5f610a27826109d3565b9050919050565b610a3781610a1d565b82525050565b5f602082019050610a505f830184610a2e565b92915050565b5f80fd5b5f601f19601f8301169050919050565b7f4e487b71000000000000000000000000000000000000000000000000000000005f52604160045260245ffd5b610aa082610a5a565b810181811067ffffffffffffffff82111715610abf57610abe610a6a565b5b80604052505050565b5f610ad161084a565b9050610add8282610a97565b919050565b5f80fd5b5f80fd5b5f80fd5b5f67ffffffffffffffff821115610b0857610b07610a6a565b5b610b1182610a5a565b9050602081019050919050565b828183375f83830152505050565b5f610b3e610b3984610aee565b610ac8565b905082815260208101848484011115610b5a57610b59610aea565b5b610b65848285610b1e565b509392505050565b5f82601f830112610b8157610b80610ae6565b5b8135610b91848260208601610b2c565b91505092915050565b610ba381610906565b8114610bad575f80fd5b50565b5f81359050610bbe81610b9a565b92915050565b5f60e08284031215610bd957610bd8610a56565b5b610be360e0610ac8565b90505f610bf28482850161087a565b5f83015250602082013567ffffffffffffffff811115610c1557610c14610ae2565b5b610c2184828501610b6d565b6020830152506040610c358482850161087a565b6040830152506060610c4984828501610bb0565b6060830152506080610c5d8482850161087a565b60808301525060a0610c718482850161087a565b60a08301525060c0610c858482850161087a565b60c08301525092915050565b5f67ffffffffffffffff821115610cab57610caa610a6a565b5b610cb482610a5a565b9050602081019050919050565b5f610cd3610cce84610c91565b610ac8565b905082815260208101848484011115610cef57610cee610aea565b5b610cfa848285610b1e565b509392505050565b5f82601f830112610d1657610d15610ae6565b5b8135610d26848260208601610cc1565b91505092915050565b5f805f60608486031215610d4657610d45610853565b5b5f84013567ffffffffffffffff811115610d6357610d62610857565b5b610d6f86828701610bc4565b935050602084013567ffffffffffffffff811115610d9057610d8f610857565b5b610d9c86828701610d02565b9250506040610dad8682870161087a565b9150509250925092565b5f602082019050610dca5f830184610911565b92915050565b5f81519050610dde81610b9a565b92915050565b5f60208284031215610df957610df8610853565b5b5f610e0684828501610dd0565b91505092915050565b5f82825260208201905092915050565b7f4167656e74206e6f7420616374697665000000000000000000000000000000005f82015250565b5f610e53601083610e0f565b9150610e5e82610e1f565b602082019050919050565b5f6020820190508181035f830152610e8081610e47565b9050919050565b7f4e487b71000000000000000000000000000000000000000000000000000000005f52601260045260245ffd5b7f4e487b71000000000000000000000000000000000000000000000000000000005f52601160045260245ffd5b5f610eeb8261085b565b9150610ef68361085b565b925082610f0657610f05610e87565b5b828204905092915050565b5f610f1b8261085b565b9150610f268361085b565b9250828203905081811115610f3e57610f3d610eb4565b5b92915050565b5f610f4e8261085b565b9150610f598361085b565b9250828202610f678161085b565b91508282048414831517610f7e57610f7d610eb4565b5b5092915050565b7f4167656e742070617573656400000000000000000000000000000000000000005f82015250565b5f610fb9600c83610e0f565b9150610fc482610f85565b602082019050919050565b5f6020820190508181035f830152610fe681610fad565b9050919050565b7f4d61782064726177646f776e20657863656564656400000000000000000000005f82015250565b5f611021601583610e0f565b915061102c82610fed565b602082019050919050565b5f6020820190508181035f83015261104e81611015565b9050919050565b7f44726177646f776e206c696d69740000000000000000000000000000000000005f82015250565b5f611089600e83610e0f565b915061109482611055565b602082019050919050565b5f6020820190508181035f8301526110b68161107d565b9050919050565b7f4461696c79206c6f7373206c696d6974000000000000000000000000000000005f82015250565b5f6110f1601083610e0f565b91506110fc826110bd565b602082019050919050565b5f6020820190508181035f83015261111e816110e5565b9050919050565b7f506f736974696f6e20746f6f206c6172676500000000000000000000000000005f82015250565b5f611159601283610e0f565b915061116482611125565b602082019050919050565b5f6020820190508181035f8301526111868161114d565b9050919050565b6111968161085b565b82525050565b5f81519050919050565b5f82825260208201905092915050565b8281835e5f83830152505050565b5f6111ce8261119c565b6111d881856111a6565b93506111e88185602086016111b6565b6111f181610a5a565b840191505092915050565b61120581610906565b82525050565b5f60e083015f8301516112205f86018261118d565b506020830151848203602086015261123882826111c4565b915050604083015161124d604086018261118d565b50606083015161126060608601826111fc565b506080830151611273608086018261118d565b5060a083015161128660a086018261118d565b5060c083015161129960c086018261118d565b508091505092915050565b5f81519050919050565b5f82825260208201905092915050565b5f6112c8826112a4565b6112d281856112ae565b93506112e28185602086016111b6565b6112eb81610a5a565b840191505092915050565b5f6040820190508181035f83015261130e818561120b565b9050818103602083015261132281846112be565b90509392505050565b7f496e76616c6964207369676e61747572650000000000000000000000000000005f82015250565b5f61135f601183610e0f565b915061136a8261132b565b602082019050919050565b5f6020820190508181035f83015261138c81611353565b9050919050565b5f61139d8261119c565b6113a78185610e0f565b93506113b78185602086016111b6565b6113c081610a5a565b840191505092915050565b5f6040820190508181035f8301526113e38185611393565b90506113f26020830184610911565b939250505056fea2646970667358221220a8e3979672200ef76359184b3ff0e9e31afdb598ad7b6b59232b0358a4558c8f64736f6c634300081a0033",
  "linkReferences": {},
  "deployedLinkReferences": {}
}