{"contracts/RiskRouter.sol":{"RiskRouter":{"abi":[{"inputs":[{"internalType":"address","name":"validatorAddr","type":"address"},{"internalType":"address","name":"registryAddr","type":"address"}],"stateMutability":"nonpayable","type":"constructor"},{"anonymous":false,"inputs":[{"indexed":true,"internalType":"uint256","name":"agentId","type":"uint256"},{"indexed":false,"internalType":"string","name":"reason","type":"string"}],"name":"AgentPaused","type":"event"},{"anonymous":false,"inputs":[{"indexed":true,"internalType":"uint256","name":"agentId","type":"uint256"},{"indexed":false,"internalType":"string","name":"reason","type":"string"}],"name":"TradeBlocked","type":"event"},{"anonymous":false,"inputs":[{"indexed":true,"internalType":"uint256","name":"agentId","type":"uint256"},{"indexed":false,"internalType":"string","name":"pair","type":"string"},{"indexed":false,"internalType":"bool","name":"isBuy","type":"bool"}],"name":"TradePassed","type":"event"},{"inputs":[],"name":"DAILY_LOSS_BPS","outputs":[{"internalType":"uint256","name":"","type":"uint256"}],"stateMutability":"view","type":"function"},{"inputs":[],"name":"MAX_DRAWDOWN_BPS","outputs":[{"internalType":"uint256","name":"","type":"uint256"}],"stateMutability":"view","type":"function"},{"inputs":[],"name":"MAX_POSITION_USD6","outputs":[{"internalType":"uint256","name":"","type":"uint256"}],"stateMutability":"view","type":"function"},{"inputs":[{"internalType":"uint256","name":"","type":"uint256"}],"name":"agentStates","outputs":[{"internalType":"uint256","name":"peakValueUsd6","type":"uint256"},{"internalType":"uint256","name":"currentValueUsd6","type":"uint256"},{"internalType":"uint256","name":"dailyStartValueUsd6","type":"uint256"},{"internalType":"uint256","name":"lastResetDay","type":"uint256"},{"internalType":"bool","name":"paused","type":"bool"}],"stateMutability":"view","type":"function"},{"inputs":[{"internalType":"uint256","name":"agentId","type":"uint256"}],"name":"getDrawdownBps","outputs":[{"internalType":"uint256","name":"","type":"uint256"}],"stateMutability":"view","type":"function"},{"inputs":[{"internalType":"uint256","name":"agentId","type":"uint256"},{"internalType":"uint256","name":"initialValueUsd6","type":"uint256"}],"name":"initAgent","outputs":[],"stateMutability":"nonpayable","type":"function"},{"inputs":[],"name":"registry","outputs":[{"internalType":"contract AgentRegistry","name":"","type":"address"}],"stateMutability":"view","type":"function"},{"inputs":[{"components":[{"internalType":"uint256","name":"agentId","type":"uint256"},{"internalType":"string","name":"pair","type":"string"},{"internalType":"uint256","name":"volume","type":"uint256"},{"internalType":"bool","name":"isBuy","type":"bool"},{"internalType":"uint256","name":"price","type":"uint256"},{"internalType":"uint256","name":"deadline","type":"uint256"},{"internalType":"uint256","name":"nonce","type":"uint256"}],"internalType":"struct TradeValidator.TradeIntent","name":"intent","type":"tuple"},{"internalType":"bytes","name":"signature","type":"bytes"},{"internalType":"uint256","name":"currentPriceUsd6","type":"uint256"}],"name":"routeTrade","outputs":[{"internalType":"bool","name":"","type":"bool"}],"stateMutability":"nonpayable","type":"function"},{"inputs":[{"internalType":"uint256","name":"agentId","type":"uint256"},{"internalType":"uint256","name":"newValueUsd6","type":"uint256"}],"name":"updateAgentValue","outputs":[],"stateMutability":"nonpayable","type":"function"},{"inputs":[],"name":"validator","outputs":[{"internalType":"contract TradeValidator","name":"","type":"address"}],"stateMutability":"view","type":"function"}],"evm":{"bytecode":{"linkReferences":{},"object":"60c060405234801561000f575f80fd5b5060405161159a38038061159a833981810160405281019061003191906100fe565b8173ffffffffffffffffffffffffffffffffffffffff1660808173ffffffffffffffffffffffffffffffffffffffff16815250508073ffffffffffffffffffffffffffffffffffffffff1660a08173ffffffffffffffffffffffffffffffffffffffff1681525050505061013c565b5f80fd5b5f73ffffffffffffffffffffffffffffffffffffffff82169050919050565b5f6100cd826100a4565b9050919050565b6100dd816100c3565b81146100e7575f80fd5b50565b5f815190506100f8816100d4565b92915050565b5f8060408385031215610114576101136100a0565b5b5f610121858286016100ea565b9250506020610132858286016100ea565b9150509250929050565b60805160a05161142f61016b5f395f818161020401526103e101525f81816103880152610714015261142f5ff3fe608060405234801561000f575f80fd5b506004361061009c575f3560e01c80635b7af5c0116100645780635b7af5c01461014a5780637b1039991461016657806382f2815814610184578063a37155b4146101b4578063ab9c1e8a146101d25761009c565b8063070c0871146100a05780630d5c4799146100bc5780631661db51146100f05780633903df351461010e5780633a5381b51461012c575b5f80fd5b6100ba60048036038101906100b5919061088e565b610202565b005b6100d660048036038101906100d191906108cc565b61033d565b6040516100e7959493929190610920565b60405180910390f35b6100f861037a565b6040516101059190610971565b60405180910390f35b610116610380565b6040516101239190610971565b60405180910390f35b610134610386565b6040516101419190610a04565b60405180910390f35b610164600480360381019061015f919061088e565b6103aa565b005b61016e6103df565b60405161017b9190610a3d565b60405180910390f35b61019e600480360381019061019991906108cc565b610403565b6040516101ab9190610971565b60405180910390f35b6101bc610478565b6040516101c99190610971565b60405180910390f35b6101ec60048036038101906101e79190610d2f565b610480565b6040516101f99190610db7565b60405180910390f35b7f000000000000000000000000000000000000000000000000000000000000000073ffffffffffffffffffffffffffffffffffffffff166382afd23b836040518263ffffffff1660e01b815260040161025b9190610971565b602060405180830381865afa158015610276573d5f803e3d5ffd5b505050506040513d601f19601f8201168201806040525081019061029a9190610de4565b6102d9576040517f08c379a00000000000000000000000000000000000000000000000000000000081526004016102d090610e69565b60405180910390fd5b5f805f8481526020019081526020015f20905081815f018190555081816001018190555081816002018190555062015180426103159190610ee1565b81600301819055505f816004015f6101000a81548160ff021916908315150217905550505050565b5f602052805f5260405f205f91509050805f015490806001015490806002015490806003015490806004015f9054906101000a900460ff16905085565b6101f481565b6105dc81565b7f000000000000000000000000000000000000000000000000000000000000000081565b5f805f8481526020019081526020015f209050818160010181905550805f01548211156103da5781815f01819055505b505050565b7f000000000000000000000000000000000000000000000000000000000000000081565b5f805f808481526020019081526020015f2090505f815f01540361042a575f915050610473565b805f0154816001015410610441575f915050610473565b805f01546127108260010154835f015461045b9190610f11565b6104659190610f44565b61046f9190610ee1565b9150505b919050565b6302faf08081565b5f80845f015190505f805f8381526020019081526020015f2090505f62015180426104ab9190610ee1565b905080826003015410156104d057816001015482600201819055508082600301819055505b816004015f9054906101000a900460ff161561052757827f9ab51e0a0a51abb8ece149929e3524922f4e9bddc3927ee4e3682d487983c05260405161051490610fcf565b60405180910390a25f9350505050610843565b5f825f01541115610602575f825f01546127108460010154855f015461054d9190610f11565b6105579190610f44565b6105619190610ee1565b90506105dc8110610600576001836004015f6101000a81548160ff021916908315150217905550837f311507806c314bdacccaeace626259e039a1518627499885178071e6c0c92bc06040516105b690611037565b60405180910390a2837f9ab51e0a0a51abb8ece149929e3524922f4e9bddc3927ee4e3682d487983c0526040516105ec9061109f565b60405180910390a25f945050505050610843565b505b5f826002015411801561061c575081600201548260010154105b156106a1575f82600201546127108460010154856002015461063e9190610f11565b6106489190610f44565b6106529190610ee1565b90506101f4811061069f57837f9ab51e0a0a51abb8ece149929e3524922f4e9bddc3927ee4e3682d487983c05260405161068b90611107565b60405180910390a25f945050505050610843565b505b5f6305f5e1008689604001516106b79190610f44565b6106c19190610ee1565b90506302faf08081111561071157837f9ab51e0a0a51abb8ece149929e3524922f4e9bddc3927ee4e3682d487983c0526040516106fd9061116f565b60405180910390a25f945050505050610843565b5f7f000000000000000000000000000000000000000000000000000000000000000073ffffffffffffffffffffffffffffffffffffffff16632eff4b518a8a6040518363ffffffff1660e01b815260040161076d9291906112f6565b6020604051808303815f875af1158015610789573d5f803e3d5ffd5b505050506040513d601f19601f820116820180604052508101906107ad9190610de4565b9050806107f757847f9ab51e0a0a51abb8ece149929e3524922f4e9bddc3927ee4e3682d487983c0526040516107e290611375565b60405180910390a25f95505050505050610843565b847f2c564104ca875b255e40305396f642cfb506deb6bade7f99fe5aff3fc4cc35e98a602001518b606001516040516108319291906113cb565b60405180910390a26001955050505050505b9392505050565b5f604051905090565b5f80fd5b5f80fd5b5f819050919050565b61086d8161085b565b8114610877575f80fd5b50565b5f8135905061088881610864565b92915050565b5f80604083850312156108a4576108a3610853565b5b5f6108b18582860161087a565b92505060206108c28582860161087a565b9150509250929050565b5f602082840312156108e1576108e0610853565b5b5f6108ee8482850161087a565b91505092915050565b6109008161085b565b82525050565b5f8115159050919050565b61091a81610906565b82525050565b5f60a0820190506109335f8301886108f7565b61094060208301876108f7565b61094d60408301866108f7565b61095a60608301856108f7565b6109676080830184610911565b9695505050505050565b5f6020820190506109845f8301846108f7565b92915050565b5f73ffffffffffffffffffffffffffffffffffffffff82169050919050565b5f819050919050565b5f6109cc6109c76109c28461098a565b6109a9565b61098a565b9050919050565b5f6109dd826109b2565b9050919050565b5f6109ee826109d3565b9050919050565b6109fe816109e4565b82525050565b5f602082019050610a175f8301846109f5565b92915050565b5f610a27826109d3565b9050919050565b610a3781610a1d565b82525050565b5f602082019050610a505f830184610a2e565b92915050565b5f80fd5b5f601f19601f8301169050919050565b7f4e487b71000000000000000000000000000000000000000000000000000000005f52604160045260245ffd5b610aa082610a5a565b810181811067ffffffffffffffff82111715610abf57610abe610a6a565b5b80604052505050565b5f610ad161084a565b9050610add8282610a97565b919050565b5f80fd5b5f80fd5b5f80fd5b5f67ffffffffffffffff821115610b0857610b07610a6a565b5b610b1182610a5a565b9050602081019050919050565b828183375f83830152505050565b5f610b3e610b3984610aee565b610ac8565b905082815260208101848484011115610b5a57610b59610aea565b5b610b65848285610b1e565b509392505050565b5f82601f830112610b8157610b80610ae6565b5b8135610b91848260208601610b2c565b91505092915050565b610ba381610906565b8114610bad575f80fd5b50565b5f81359050610bbe81610b9a565b92915050565b5f60e08284031215610bd957610bd8610a56565b5b610be360e0610ac8565b90505f610bf28482850161087a565b5f83015250602082013567ffffffffffffffff811115610c1557610c14610ae2565b5b610c2184828501610b6d565b6020830152506040610c358482850161087a565b6040830152506060610c4984828501610bb0565b6060830152506080610c5d8482850161087a565b60808301525060a0610c718482850161087a565b60a08301525060c0610c858482850161087a565b60c08301525092915050565b5f67ffffffffffffffff821115610cab57610caa610a6a565b5b610cb482610a5a565b9050602081019050919050565b5f610cd3610cce84610c91565b610ac8565b905082815260208101848484011115610cef57610cee610aea565b5b610cfa848285610b1e565b509392505050565b5f82601f830112610d1657610d15610ae6565b5b8135610d26848260208601610cc1565b91505092915050565b5f805f60608486031215610d4657610d45610853565b5b5f84013567ffffffffffffffff811115610d6357610d62610857565b5b610d6f86828701610bc4565b935050602084013567ffffffffffffffff811115610d9057610d8f610857565b5b610d9c86828701610d02565b9250506040610dad8682870161087a565b9150509250925092565b5f602082019050610dca5f830184610911565b92915050565b5f81519050610dde81610b9a565b92915050565b5f60208284031215610df957610df8610853565b5b5f610e0684828501610dd0565b91505092915050565b5f82825260208201905092915050565b7f4167656e74206e6f7420616374697665000000000000000000000000000000005f82015250565b5f610e53601083610e0f565b9150610e5e82610e1f565b602082019050919050565b5f6020820190508181035f830152610e8081610e47565b9050919050565b7f4e487b71000000000000000000000000000000000000000000000000000000005f52601260045260245ffd5b7f4e487b71000000000000000000000000000000000000000000000000000000005f52601160045260245ffd5b5f610eeb8261085b565b9150610ef68361085b565b925082610f0657610f05610e87565b5b828204905092915050565b5f610f1b8261085b565b9150610f268361085b565b9250828203905081811115610f3e57610f3d610eb4565b5b92915050565b5f610f4e8261085b565b9150610f598361085b565b9250828202610f678161085b565b91508282048414831517610f7e57610f7d610eb4565b5b5092915050565b7f4167656e742070617573656400000000000000000000000000000000000000005f82015250565b5f610fb9600c83610e0f565b9150610fc482610f85565b602082019050919050565b5f6020820190508181035f830152610fe681610fad565b9050919050565b7f4d61782064726177646f776e20657863656564656400000000000000000000005f82015250565b5f611021601583610e0f565b915061102c82610fed565b602082019050919050565b5f6020820190508181035f83015261104e81611015565b9050919050565b7f44726177646f776e206c696d69740000000000000000000000000000000000005f82015250565b5f611089600e83610e0f565b915061109482611055565b602082019050919050565b5f6020820190508181035f8301526110b68161107d565b9050919050565b7f4461696c79206c6f7373206c696d6974000000000000000000000000000000005f82015250565b5f6110f1601083610e0f565b91506110fc826110bd565b602082019050919050565b5f6020820190508181035f83015261111e816110e5565b9050919050565b7f506f736974696f6e20746f6f206c6172676500000000000000000000000000005f82015250565b5f611159601283610e0f565b915061116482611125565b602082019050919050565b5f6020820190508181035f8301526111868161114d565b9050919050565b6111968161085b565b82525050565b5f81519050919050565b5f82825260208201905092915050565b8281835e5f83830152505050565b5f6111ce8261119c565b6111d881856111a6565b93506111e88185602086016111b6565b6111f181610a5a565b840191505092915050565b61120581610906565b82525050565b5f60e083015f8301516112205f86018261118d565b506020830151848203602086015261123882826111c4565b915050604083015161124d604086018261118d565b50606083015161126060608601826111fc565b506080830151611273608086018261118d565b5060a083015161128660a086018261118d565b5060c083015161129960c086018261118d565b508091505092915050565b5f81519050919050565b5f82825260208201905092915050565b5f6112c8826112a4565b6112d281856112ae565b93506112e28185602086016111b6565b6112eb81610a5a565b840191505092915050565b5f6040820190508181035f83015261130e818561120b565b9050818103602083015261132281846112be565b90509392505050565b7f496e76616c6964207369676e61747572650000000000000000000000000000005f82015250565b5f61135f601183610e0f565b915061136a8261132b565b602082019050919050565b5f6020820190508181035f83015261138c81611353565b9050919050565b5f61139d8261119c565b6113a78185610e0f565b93506113b78185602086016111b6565b6113c081610a5a565b840191505092915050565b5f6040820190508181035f8301526113e38185611393565b90506113f26020830184610911565b939250505056fea2646970667358221220a8e3979672200ef76359184b3ff0e9e31afdb598ad7b6b59232b0358a4558c8f64736f6c634300081a0033","opcodes":"PUSH1 0xC0 PUSH1 0x40 MSTORE CALLVALUE DUP1 ISZERO PUSH2 0xF JUMPI PUSH0 DUP1 REVERT JUMPDEST POP PUSH1 0x40 MLOAD PUSH2 0x159A CODESIZE SUB DUP1 PUSH2 0x159A DUP4 CODECOPY DUP2 DUP2 ADD PUSH1 0x40 MSTORE DUP2 ADD SWAP1 PUSH2 0x31 SWAP2 SWAP1 PUSH2 0xFE JUMP JUMPDEST DUP2 PUSH20 0xFFFFFFFFFFFFFFFFFFFFFFFFFFFFFFFFFFFFFFFF AND PUSH1 0x80 DUP2 PUSH20 0xFFFFFFFFFFFFFFFFFFFFFFFFFFFFFFFFFFFFFFFF AND DUP2 MSTORE POP POP DUP1 PUSH20 0xFFFFFFFFFFFFFFFFFFFFFFFFFFFFFFFFFFFFFFFF AND PUSH1 0xA0 DUP2 PUSH20 0xFFFFFFFFFFFFFFFFFFFFFFFFFFFFFFFFFFFFFFFF AND DUP2 MSTORE POP POP POP POP PUSH2 0x13C JUMP JUMPDEST PUSH0 DUP1 REVERT JUMPDEST PUSH0 PUSH20 0xFFFFFFFFFFFFFFFFFFFFFFFFFFFFFFFFFFFFFFFF DUP3 AND SWAP1 POP SWAP2 SWAP1 POP JUMP JUMPDEST PUSH0 PUSH2 0xCD DUP3 PUSH2 0xA4 JUMP JUMPDEST SWAP1 POP SWAP2 SWAP1 POP JUMP JUMPDEST PUSH2 0xDD DUP2 PUSH2 0xC3 JUMP JUMPDEST DUP2 EQ PUSH2 0xE7 JUMPI PUSH0 DUP1 REVERT JUMPDEST POP JUMP JUMPDEST PUSH0 DUP2 MLOAD SWAP1 POP PUSH2 0xF8 DUP2 PUSH2 0xD4 JUMP JUMPDEST SWAP3 SWAP2 POP POP JUMP JUMPDEST PUSH0 DUP1 PUSH1 0x40 DUP4 DUP6 SUB SLT ISZERO PUSH2 0x114 JUMPI PUSH2 0x113 PUSH2 0xA0 JUMP JUMPDEST JUMPDEST PUSH0 PUSH2 0x121 DUP6 DUP3 DUP7 ADD PUSH2 0xEA JUMP JUMPDEST SWAP3 POP POP PUSH1 0x20 PUSH2 0x132 DUP6 DUP3 DUP7 ADD PUSH2 0xEA JUMP JUMPDEST SWAP2 POP POP SWAP3 POP SWAP3 SWAP1 POP JUMP JUMPDEST PUSH1 0x80 MLOAD PUSH1 0xA0 MLOAD PUSH2 0x142F PUSH2 0x16B PUSH0 CODECOPY PUSH0 DUP2 DUP2 PUSH2 0x204 ADD MSTORE PUSH2 0x3E1 ADD MSTORE PUSH0 DUP2 DUP2 PUSH2 0x388 ADD MSTORE PUSH2 0x714 ADD MSTORE PUSH2 0x142F PUSH0 RETURN INVALID PUSH1 0x80 PUSH1 0x40 MSTORE CALLVALUE DUP1 ISZERO PUSH2 0xF JUMPI PUSH0 DUP1 REVERT JUMPDEST POP PUSH1 0x4 CALLDATASIZE LT PUSH2 0x9C JUMPI PUSH0 CALLDATALOAD PUSH1 0xE0 SHR DUP1 PUSH4 0x5B7AF5C0 GT PUSH2 0x64 JUMPI DUP1 PUSH4 0x5B7AF5C0 EQ PUSH2 0x14A JUMPI DUP1 PUSH4 0x7B103999 EQ PUSH2 0x166 JUMPI DUP1 PUSH4 0x82F28158 EQ PUSH2 0x184 JUMPI DUP1 PUSH4 0xA37155B4 EQ PUSH2 0x1B4 JUMPI DUP1 PUSH4 0xAB9C1E8A EQ PUSH2 0x1D2 JUMPI PUSH2 0x9C JUMP JUMPDEST DUP1 PUSH4 0x70C0871 EQ PUSH2 0xA0 JUMPI DUP1 PUSH4 0xD5C4799 EQ PUSH2 0xBC JUMPI DUP1 PUSH4 0x1661DB51 EQ PUSH2 0xF0 JUMPI DUP1 PUSH4 0x3903DF35 EQ PUSH2 0x10E JUMPI DUP1 PUSH4 0x3A5381B5 EQ PUSH2 0x12C JUMPI JUMPDEST PUSH0 DUP1 REVERT JUMPDEST PUSH2 0xBA PUSH1 0x4 DUP1 CALLDATASIZE SUB DUP2 ADD SWAP1 PUSH2 0xB5 SWAP2 SWAP1 PUSH2 0x88E JUMP JUMPDEST PUSH2 0x202 JUMP JUMPDEST STOP JUMPDEST PUSH2 0xD6 PUSH1 0x4 DUP1 CALLDATASIZE SUB DUP2 ADD SWAP1 PUSH2 0xD1 SWAP2 SWAP1 PUSH2 0x8CC JUMP JUMPDEST PUSH2 0x33D JUMP JUMPDEST PUSH1 0x40 MLOAD PUSH2 0xE7 SWAP6 SWAP5 SWAP4 SWAP3 SWAP2 SWAP1 PUSH2 0x920 JUMP JUMPDEST PUSH1 0x40 MLOAD DUP1 SWAP2 SUB SWAP1 RETURN JUMPDEST PUSH2 0xF8 PUSH2 0x37A JUMP JUMPDEST PUSH1 0x40 MLOAD PUSH2 0x105 SWAP2 SWAP1 PUSH2 0x971 JUMP JUMPDEST PUSH1 0x40 MLOAD DUP1 SWAP2 SUB SWAP1 RETURN JUMPDEST PUSH2 0x116 PUSH2 0x380 JUMP JUMPDEST PUSH1 0x40 MLOAD PUSH2 0x123 SWAP2 SWAP1 PUSH2 0x971 JUMP JUMPDEST PUSH1 0x40 MLOAD DUP1 SWAP2 SUB SWAP1 RETURN JUMPDEST PUSH2 0x134 PUSH2 0x386 JUMP JUMPDEST PUSH1 0x40 MLOAD PUSH2 0x141 SWAP2 SWAP1 PUSH2 0xA04 JUMP JUMPDEST PUSH1 0x40 MLOAD DUP1 SWAP2 SUB SWAP1 RETURN JUMPDEST PUSH2 0x164 PUSH1 0x4 DUP1 CALLDATASIZE SUB DUP2 ADD SWAP1 PUSH2 0x15F SWAP2 SWAP1 PUSH2 0x88E JUMP JUMPDEST PUSH2 0x3AA JUMP JUMPDEST STOP JUMPDEST PUSH2 0x16E PUSH2 0x3DF JUMP JUMPDEST PUSH1 0x40 MLOAD PUSH2 0x17B SWAP2 SWAP1 PUSH2 0xA3D JUMP JUMPDEST PUSH1 0x40 MLOAD DUP1 SWAP2 SUB SWAP1 RETURN JUMPDEST PUSH2 0x19E PUSH1 0x4 DUP1 CALLDATASIZE SUB DUP2 ADD SWAP1 PUSH2 0x199 SWAP2 SWAP1 PUSH2 0x8CC JUMP JUMPDEST PUSH2 0x403 JUMP JUMPDEST PUSH1 0x40 MLOAD PUSH2 0x1AB SWAP2 SWAP1 PUSH2 0x971 JUMP JUMPDEST PUSH1 0x40 MLOAD DUP1 SWAP2 SUB SWAP1 RETURN JUMPDEST PUSH2 0x1BC PUSH2 0x478 JUMP JUMPDEST PUSH1 0x40 MLOAD PUSH2 0x1C9 SWAP2 SWAP1 PUSH2 0x971 JUMP JUMPDEST PUSH1 0x40 MLOAD DUP1 SWAP2 SUB SWAP1 RETURN JUMPDEST PUSH2 0x1EC PUSH1 0x4 DUP1 CALLDATASIZE SUB DUP2 ADD SWAP1 PUSH2 0x1E7 SWAP2 SWAP1 PUSH2 0xD2F JUMP JUMPDEST PUSH2 0x480 JUMP JUMPDEST PUSH1 0x40 MLOAD PUSH2 0x1F9 SWAP2 SWAP1 PUSH2 0xDB7 JUMP JUMPDEST PUSH1 0x40 MLOAD DUP1 SWAP2 SUB SWAP1 RETURN JUMPDEST PUSH32 0x0 PUSH20 0xFFFFFFFFFFFFFFFFFFFFFFFFFFFFFFFFFFFFFFFF AND PUSH4 0x82AFD23B DUP4 PUSH1 0x40 MLOAD DUP3 PUSH4 0xFFFFFFFF AND PUSH1 0xE0 SHL DUP2 MSTORE PUSH1 0x4 ADD PUSH2 0x25B SWAP2 SWAP1 PUSH2 0x971 JUMP JUMPDEST PUSH1 0x20 PUSH1 0x40 MLOAD DUP1 DUP4 SUB DUP2 DUP7 GAS STATICCALL ISZERO DUP1 ISZERO PUSH2 0x276 JUMPI RETURNDATASIZE PUSH0 DUP1 RETURNDATACOPY RETURNDATASIZE PUSH0 REVERT JUMPDEST POP POP POP POP PUSH1 0x40 MLOAD RETURNDATASIZE PUSH1 0x1F NOT PUSH1 0x1F DUP3 ADD AND DUP3 ADD DUP1 PUSH1 0x40 MSTORE POP DUP2 ADD SWAP1 PUSH2 0x29A SWAP2 SWAP1 PUSH2 0xDE4 JUMP JUMPDEST PUSH2 0x2D9 JUMPI PUSH1 0x40 MLOAD PUSH32 0x8C379A000000000000000000000000000000000000000000000000000000000 DUP2 MSTORE PUSH1 0x4 ADD PUSH2 0x2D0 SWAP1 PUSH2 0xE69 JUMP JUMPDEST PUSH1 0x40 MLOAD DUP1 SWAP2 SUB SWAP1 REVERT JUMPDEST PUSH0 DUP1 PUSH0 DUP5 DUP2 MSTORE PUSH1 0x20 ADD SWAP1 DUP2 MSTORE PUSH1 0x20 ADD PUSH0 KECCAK256 SWAP1 POP DUP2 DUP2 PUSH0 ADD DUP2 SWAP1 SSTORE POP DUP2 DUP2 PUSH1 0x1 ADD DUP2 SWAP1 SSTORE POP DUP2 DUP2 PUSH1 0x2 ADD DUP2 SWAP1 SSTORE POP PUSH3 0x15180 TIMESTAMP PUSH2 0x315 SWAP2 SWAP1 PUSH2 0xEE1 JUMP JUMPDEST DUP2 PUSH1 0x3 ADD DUP2 SWAP1 SSTORE POP PUSH0 DUP2 PUSH1 0x4 ADD PUSH0 PUSH2 0x100 EXP DUP2 SLOAD DUP2 PUSH1 0xFF MUL NOT AND SWAP1 DUP4 ISZERO ISZERO MUL OR SWAP1 SSTORE POP POP POP POP JUMP JUMPDEST PUSH0 PUSH1 0x20 MSTORE DUP1 PUSH0 MSTORE PUSH1 0x40 PUSH0 KECCAK256 PUSH0 SWAP2 POP SWAP1 POP DUP1 PUSH0 ADD SLOAD SWAP1 DUP1 PUSH1 0x1 ADD SLOAD SWAP1 DUP1 PUSH1 0x2 ADD SLOAD SWAP1 DUP1 PUSH1 0x3 ADD SLOAD SWAP1 DUP1 PUSH1 0x4 ADD PUSH0 SWAP1 SLOAD SWAP1 PUSH2 0x100 EXP SWAP1 DIV PUSH1 0xFF AND SWAP1 POP DUP6 JUMP JUMPDEST PUSH2 0x1F4 DUP2 JUMP JUMPDEST PUSH2 0x5DC DUP2 JUMP JUMPDEST PUSH32 0x0 DUP2 JUMP JUMPDEST PUSH0 DUP1 PUSH0 DUP5 DUP2 MSTORE PUSH1 0x20 ADD SWAP1 DUP2 MSTORE PUSH1 0x20 ADD PUSH0 KECCAK256 SWAP1 POP DUP2 DUP2 PUSH1 0x1 ADD DUP2 SWAP1 SSTORE POP DUP1 PUSH0 ADD SLOAD DUP3 GT ISZERO PUSH2 0x3DA JUMPI DUP2 DUP2 PUSH0 ADD DUP2 SWAP1 SSTORE POP JUMPDEST POP POP POP JUMP JUMPDEST PUSH32 0x0 DUP2 JUMP JUMPDEST PUSH0 DUP1 PUSH0 DUP1 DUP5 DUP2 MSTORE PUSH1 0x20 ADD SWAP1 DUP2 MSTORE PUSH1 0x20 ADD PUSH0 KECCAK256 SWAP1 POP PUSH0 DUP2 PUSH0 ADD SLOAD SUB PUSH2 0x42A JUMPI PUSH0 SWAP2 POP POP PUSH2 0x473 JUMP JUMPDEST DUP1 PUSH0 ADD SLOAD DUP2 PUSH1 0x1 ADD SLOAD LT PUSH2 0x441 JUMPI PUSH0 SWAP2 POP POP PUSH2 0x473 JUMP JUMPDEST DUP1 PUSH0 ADD SLOAD PUSH2 0x2710 DUP3 PUSH1 0x1 ADD SLOAD DUP4 PUSH0 ADD SLOAD PUSH2 0x45B SWAP2 SWAP1 PUSH2 0xF11 JUMP JUMPDEST PUSH2 0x465 SWAP2 SWAP1 PUSH2 0xF44 JUMP JUMPDEST PUSH2 0x46F SWAP2 SWAP1 PUSH2 0xEE1 JUMP JUMPDEST SWAP2 POP POP JUMPDEST SWAP2 SWAP1 POP JUMP JUMPDEST PUSH4 0x2FAF080 DUP2 JUMP JUMPDEST PUSH0 DUP1 DUP5 PUSH0 ADD MLOAD SWAP1 POP PUSH0 DUP1 PUSH0 DUP4 DUP2 MSTORE PUSH1 0x20 ADD SWAP1 DUP2 MSTORE PUSH1 0x20 ADD PUSH0 KECCAK256 SWAP1 POP PUSH0 PUSH3 0x15180 TIMESTAMP PUSH2 0x4AB SWAP2 SWAP1 PUSH2 0xEE1 JUMP JUMPDEST SWAP1 POP DUP1 DUP3 PUSH1 0x3 ADD SLOAD LT ISZERO PUSH2 0x4D0 JUMPI DUP2 PUSH1 0x1 ADD SLOAD DUP3 PUSH1 0x2 ADD DUP2 SWAP1 SSTORE POP DUP1 DUP3 PUSH1 0x3 ADD DUP2 SWAP1 SSTORE POP JUMPDEST DUP2 PUSH1 0x4 ADD PUSH0 SWAP1 SLOAD SWAP1 PUSH2 0x100 EXP SWAP1 DIV PUSH1 0xFF AND ISZERO PUSH2 0x527 JUMPI DUP3 PUSH32 0x9AB51E0A0A51ABB8ECE149929E3524922F4E9BDDC3927EE4E3682D487983C052 PUSH1 0x40 MLOAD PUSH2 0x514 SWAP1 PUSH2 0xFCF JUMP JUMPDEST PUSH1 0x40 MLOAD DUP1 SWAP2 SUB SWAP1 LOG2 PUSH0 SWAP4 POP POP POP POP PUSH2 0x843 JUMP JUMPDEST PUSH0 DUP3 PUSH0 ADD SLOAD GT ISZERO PUSH2 0x602 JUMPI PUSH0 DUP3 PUSH0 ADD SLOAD PUSH2 0x2710 DUP5 PUSH1 0x1 ADD SLOAD DUP6 PUSH0 ADD SLOAD PUSH2 0x54D SWAP2 SWAP1 PUSH2 0xF11 JUMP JUMPDEST PUSH2 0x557 SWAP2 SWAP1 PUSH2 0xF44 JUMP JUMPDEST PUSH2 0x561 SWAP2 SWAP1 PUSH2 0xEE1 JUMP JUMPDEST SWAP1 POP PUSH2 0x5DC DUP2 LT PUSH2 0x600 JUMPI PUSH1 0x1 DUP4 PUSH1 0x4 ADD PUSH0 PUSH2 0x100 EXP DUP2 SLOAD DUP2 PUSH1 0xFF MUL NOT AND SWAP1 DUP4 ISZERO ISZERO MUL OR SWAP1 SSTORE POP DUP4 PUSH32 0x311507806C314BDACCCAEACE626259E039A1518627499885178071E6C0C92BC0 PUSH1 0x40 MLOAD PUSH2 0x5B6 SWAP1 PUSH2 0x1037 JUMP JUMPDEST PUSH1 0x40 MLOAD DUP1 SWAP2 SUB SWAP1 LOG2 DUP4 PUSH32 0x9AB51E0A0A51ABB8ECE149929E3524922F4E9BDDC3927EE4E3682D487983C052 PUSH1 0x40 MLOAD PUSH2 0x5EC SWAP1 PUSH2 0x109F JUMP JUMPDEST PUSH1 0x40 MLOAD DUP1 SWAP2 SUB SWAP1 LOG2 PUSH0 SWAP5 POP POP POP POP POP PUSH2 0x843 JUMP JUMPDEST POP JUMPDEST PUSH0 DUP3 PUSH1 0x2 ADD SLOAD GT DUP1 ISZERO PUSH2 0x61C JUMPI POP DUP2 PUSH1 0x2 ADD SLOAD DUP3 PUSH1 0x1 ADD SLOAD LT JUMPDEST ISZERO PUSH2 0x6A1 JUMPI PUSH0 DUP3 PUSH1 0x2 ADD SLOAD PUSH2 0x2710 DUP5 PUSH1 0x1 ADD SLOAD DUP6 PUSH1 0x2 ADD SLOAD PUSH2 0x63E SWAP2 SWAP1 PUSH2 0xF11 JUMP JUMPDEST PUSH2 0x648 SWAP2 SWAP1 PUSH2 0xF44 JUMP JUMPDEST PUSH2 0x652 SWAP2 SWAP1 PUSH2 0xEE1 JUMP JUMPDEST SWAP1 POP PUSH2 0x1F4 DUP2 LT PUSH2 0x69F JUMPI DUP4 PUSH32 0x9AB51E0A0A51ABB8ECE149929E3524922F4E9BDDC3927EE4E3682D487983C052 PUSH1 0x40 MLOAD PUSH2 0x68B SWAP1 PUSH2 0x1107 JUMP JUMPDEST PUSH1 0x40 MLOAD DUP1 SWAP2 SUB SWAP1 LOG2 PUSH0 SWAP5 POP POP POP POP POP PUSH2 0x843 JUMP JUMPDEST POP JUMPDEST PUSH0 PUSH4 0x5F5E100 DUP7 DUP10 PUSH1 0x40 ADD MLOAD PUSH2 0x6B7 SWAP2 SWAP1 PUSH2 0xF44 JUMP JUMPDEST PUSH2 0x6C1 SWAP2 SWAP1 PUSH2 0xEE1 JUMP JUMPDEST SWAP1 POP PUSH4 0x2FAF080 DUP2 GT ISZERO PUSH2 0x711 JUMPI DUP4 PUSH32 0x9AB51E0A0A51ABB8ECE149929E3524922F4E9BDDC3927EE4E3682D487983C052 PUSH1 0x40 MLOAD PUSH2 0x6FD SWAP1 PUSH2 0x116F JUMP JUMPDEST PUSH1 0x40 MLOAD DUP1 SWAP2 SUB SWAP1 LOG2 PUSH0 SWAP5 POP POP POP POP POP PUSH2 0x843 JUMP JUMPDEST PUSH0 PUSH32 0x0 PUSH20 0xFFFFFFFFFFFFFFFFFFFFFFFFFFFFFFFFFFFFFFFF AND PUSH4 0x2EFF4B51 DUP11 DUP11 PUSH1 0x40 MLOAD DUP4 PUSH4 0xFFFFFFFF AND PUSH1 0xE0 SHL DUP2 MSTORE PUSH1 0x4 ADD PUSH2 0x76D SWAP3 SWAP2 SWAP1 PUSH2 0x12F6 JUMP JUMPDEST PUSH1 0x20 PUSH1 0x40 MLOAD DUP1 DUP4 SUB DUP2 PUSH0 DUP8 GAS CALL ISZERO DUP1 ISZERO PUSH2 0x789 JUMPI RETURNDATASIZE PUSH0 DUP1 RETURNDATACOPY RETURNDATASIZE PUSH0 REVERT JUMPDEST POP POP POP POP PUSH1 0x40 MLOAD RETURNDATASIZE PUSH1 0x1F NOT PUSH1 0x1F DUP3 ADD AND DUP3 ADD DUP1 PUSH1 0x40 MSTORE POP DUP2 ADD SWAP1 PUSH2 0x7AD SWAP2 SWAP1 PUSH2 0xDE4 JUMP JUMPDEST SWAP1 POP DUP1 PUSH2 0x7F7 JUMPI DUP5 PUSH32 0x9AB51E0A0A51ABB8ECE149929E3524922F4E9BDDC3927EE4E3682D487983C052 PUSH1 0x40 MLOAD PUSH2 0x7E2 SWAP1 PUSH2 0x1375 JUMP JUMPDEST PUSH1 0x40 MLOAD DUP1 SWAP2 SUB SWAP1 LOG2 PUSH0 SWAP6 POP POP POP POP POP POP PUSH2 0x843 JUMP JUMPDEST DUP5 PUSH32 0x2C564104CA875B255E40305396F642CFB506DEB6BADE7F99FE5AFF3FC4CC35E9 DUP11 PUSH1 0x20 ADD MLOAD DUP12 PUSH1 0x60 ADD MLOAD PUSH1 0x40 MLOAD PUSH2 0x831 SWAP3 SWAP2 SWAP1 PUSH2 0x13CB JUMP JUMPDEST PUSH1 0x40 MLOAD DUP1 SWAP2 SUB SWAP1 LOG2 PUSH1 0x1 SWAP6 POP POP POP POP POP POP JUMPDEST SWAP4 SWAP3 POP POP POP JUMP JUMPDEST PUSH0 PUSH1 0x40 MLOAD SWAP1 POP SWAP1 JUMP JUMPDEST PUSH0 DUP1 REVERT JUMPDEST PUSH0 DUP1 REVERT JUMPDEST PUSH0 DUP2 SWAP1 POP SWAP2 SWAP1 POP JUMP JUMPDEST PUSH2 0x86D DUP2 PUSH2 0x85B JUMP JUMPDEST DUP2 EQ PUSH2 0x877 JUMPI PUSH0 DUP1 REVERT JUMPDEST POP JUMP JUMPDEST PUSH0 DUP2 CALLDATALOAD SWAP1 POP PUSH2 0x888 DUP2 PUSH2 0x864 JUMP JUMPDEST SWAP3 SWAP2 POP POP JUMP JUMPDEST PUSH0 DUP1 PUSH1 0x40 DUP4 DUP6 SUB SLT ISZERO PUSH2 0x8A4 JUMPI PUSH2 0x8A3 PUSH2 0x853 JUMP JUMPDEST JUMPDEST PUSH0 PUSH2 0x8B1 DUP6 DUP3 DUP7 ADD PUSH2 0x87A JUMP JUMPDEST SWAP3 POP POP PUSH1 0x20 PUSH2 0x8C2 DUP6 DUP3 DUP7 ADD PUSH2 0x87A JUMP JUMPDEST SWAP2 POP POP SWAP3 POP SWAP3 SWAP1 POP JUMP JUMPDEST PUSH0 PUSH1 0x20 DUP3 DUP5 SUB SLT ISZERO PUSH2 0x8E1 JUMPI PUSH2 0x8E0 PUSH2 0x853 JUMP JUMPDEST JUMPDEST PUSH0 PUSH2 0x8EE DUP5 DUP3 DUP6 ADD PUSH2 0x87A JUMP JUMPDEST SWAP2 POP POP SWAP3 SWAP2 POP POP JUMP JUMPDEST PUSH2 0x900 DUP2 PUSH2 0x85B JUMP JUMPDEST DUP3 MSTORE POP POP JUMP JUMPDEST PUSH0 DUP2 ISZERO ISZERO SWAP1 POP SWAP2 SWAP1 POP JUMP JUMPDEST PUSH2 0x91A DUP2 PUSH2 0x906 JUMP JUMPDEST DUP3 MSTORE POP POP JUMP JUMPDEST PUSH0 PUSH1 0xA0 DUP3 ADD SWAP1 POP PUSH2 0x933 PUSH0 DUP4 ADD DUP9 PUSH2 0x8F7 JUMP JUMPDEST PUSH2 0x940 PUSH1 0x20 DUP4 ADD DUP8 PUSH2 0x8F7 JUMP JUMPDEST PUSH2 0x94D PUSH1 0x40 DUP4 ADD DUP7 PUSH2 0x8F7 JUMP JUMPDEST PUSH2 0x95A PUSH1 0x60 DUP4 ADD DUP6 PUSH2 0x8F7 JUMP JUMPDEST PUSH2 0x967 PUSH1 0x80 DUP4 ADD DUP5 PUSH2 0x911 JUMP JUMPDEST SWAP7 SWAP6 POP POP POP POP POP POP JUMP JUMPDEST PUSH0 PUSH1 0x20 DUP3 ADD SWAP1 POP PUSH2 0x984 PUSH0 DUP4 ADD DUP5 PUSH2 0x8F7 JUMP JUMPDEST SWAP3 SWAP2 POP POP JUMP JUMPDEST PUSH0 PUSH20 0xFFFFFFFFFFFFFFFFFFFFFFFFFFFFFFFFFFFFFFFF DUP3 AND SWAP1 POP SWAP2 SWAP1 POP JUMP JUMPDEST PUSH0 DUP2 SWAP1 POP SWAP2 SWAP1 POP JUMP JUMPDEST PUSH0 PUSH2 0x9CC PUSH2 0x9C7 PUSH2 0x9C2 DUP5 PUSH2 0x98A JUMP JUMPDEST PUSH2 0x9A9 JUMP JUMPDEST PUSH2 0x98A JUMP JUMPDEST SWAP1 POP SWAP2 SWAP1 POP JUMP JUMPDEST PUSH0 PUSH2 0x9DD DUP3 PUSH2 0x9B2 JUMP JUMPDEST SWAP1 POP SWAP2 SWAP1 POP JUMP JUMPDEST PUSH0 PUSH2 0x9EE DUP3 PUSH2 0x9D3 JUMP JUMPDEST SWAP1 POP SWAP2 SWAP1 POP JUMP JUMPDEST PUSH2 0x9FE DUP2 PUSH2 0x9E4 JUMP JUMPDEST DUP3 MSTORE POP POP JUMP JUMPDEST PUSH0 PUSH1 0x20 DUP3 ADD SWAP1 POP PUSH2 0xA17 PUSH0 DUP4 ADD DUP5 PUSH2 0x9F5 JUMP JUMPDEST SWAP3 SWAP2 POP POP JUMP JUMPDEST PUSH0 PUSH2 0xA27 DUP3 PUSH2 0x9D3 JUMP JUMPDEST SWAP1 POP SWAP2 SWAP1 POP JUMP JUMPDEST PUSH2 0xA37 DUP2 PUSH2 0xA1D JUMP JUMPDEST DUP3 MSTORE POP POP JUMP JUMPDEST PUSH0 PUSH1 0x20 DUP3 ADD SWAP1 POP PUSH2 0xA50 PUSH0 DUP4 ADD DUP5 PUSH2 0xA2E JUMP JUMPDEST SWAP3 SWAP2 POP POP JUMP JUMPDEST PUSH0 DUP1 REVERT JUMPDEST PUSH0 PUSH1 0x1F NOT PUSH1 0x1F DUP4 ADD AND SWAP1 POP SWAP2 SWAP1 POP JUMP JUMPDEST PUSH32 0x4E487B7100000000000000000000000000000000000000000000000000000000 PUSH0 MSTORE PUSH1 0x41 PUSH1 0x4 MSTORE PUSH1 0x24 PUSH0 REVERT JUMPDEST PUSH2 0xAA0 DUP3 PUSH2 0xA5A JUMP JUMPDEST DUP2 ADD DUP2 DUP2 LT PUSH8 0xFFFFFFFFFFFFFFFF DUP3 GT OR ISZERO PUSH2 0xABF JUMPI PUSH2 0xABE PUSH2 0xA6A JUMP JUMPDEST JUMPDEST DUP1 PUSH1 0x40 MSTORE POP POP POP JUMP JUMPDEST PUSH0 PUSH2 0xAD1 PUSH2 0x84A JUMP JUMPDEST SWAP1 POP PUSH2 0xADD DUP3 DUP3 PUSH2 0xA97 JUMP JUMPDEST SWAP2 SWAP1 POP JUMP JUMPDEST PUSH0 DUP1 REVERT JUMPDEST PUSH0 DUP1 REVERT JUMPDEST PUSH0 DUP1 REVERT JUMPDEST PUSH0 PUSH8 0xFFFFFFFFFFFFFFFF DUP3 GT ISZERO PUSH2 0xB08 JUMPI PUSH2 0xB07 PUSH2 0xA6A JUMP JUMPDEST JUMPDEST PUSH2 0xB11 DUP3 PUSH2 0xA5A JUMP JUMPDEST SWAP1 POP PUSH1 0x20 DUP2 ADD SWAP1 POP SWAP2 SWAP1 POP JUMP JUMPDEST DUP3 DUP2 DUP4 CALLDATACOPY PUSH0 DUP4 DUP4 ADD MSTORE POP POP POP JUMP JUMPDEST PUSH0 PUSH2 0xB3E PUSH2 0xB39 DUP5 PUSH2 0xAEE JUMP JUMPDEST PUSH2 0xAC8 JUMP JUMPDEST SWAP1 POP DUP3 DUP2 MSTORE PUSH1 0x20 DUP2 ADD DUP5 DUP5 DUP5 ADD GT ISZERO PUSH2 0xB5A JUMPI PUSH2 0xB59 PUSH2 0xAEA JUMP JUMPDEST JUMPDEST PUSH2 0xB65 DUP5 DUP3 DUP6 PUSH2 0xB1E JUMP JUMPDEST POP SWAP4 SWAP3 POP POP POP JUMP JUMPDEST PUSH0 DUP3 PUSH1 0x1F DUP4 ADD SLT PUSH2 0xB81 JUMPI PUSH2 0xB80 PUSH2 0xAE6 JUMP JUMPDEST JUMPDEST DUP2 CALLDATALOAD PUSH2 0xB91 DUP5 DUP3 PUSH1 0x20 DUP7 ADD PUSH2 0xB2C JUMP JUMPDEST SWAP2 POP POP SWAP3 SWAP2 POP POP JUMP JUMPDEST PUSH2 0xBA3 DUP2 PUSH2 0x906 JUMP JUMPDEST DUP2 EQ PUSH2 0xBAD JUMPI PUSH0 DUP1 REVERT JUMPDEST POP JUMP JUMPDEST PUSH0 DUP2 CALLDATALOAD SWAP1 POP PUSH2 0xBBE DUP2 PUSH2 0xB9A JUMP JUMPDEST SWAP3 SWAP2 POP POP JUMP JUMPDEST PUSH0 PUSH1 0xE0 DUP3 DUP5 SUB SLT ISZERO PUSH2 0xBD9 JUMPI PUSH2 0xBD8 PUSH2 0xA56 JUMP JUMPDEST JUMPDEST PUSH2 0xBE3 PUSH1 0xE0 PUSH2 0xAC8 JUMP JUMPDEST SWAP1 POP PUSH0 PUSH2 0xBF2 DUP5 DUP3 DUP6 ADD PUSH2 0x87A JUMP JUMPDEST PUSH0 DUP4 ADD MSTORE POP PUSH1 0x20 DUP3 ADD CALLDATALOAD PUSH8 0xFFFFFFFFFFFFFFFF DUP2 GT ISZERO PUSH2 0xC15 JUMPI PUSH2 0xC14 PUSH2 0xAE2 JUMP JUMPDEST JUMPDEST PUSH2 0xC21 DUP5 DUP3 DUP6 ADD PUSH2 0xB6D JUMP JUMPDEST PUSH1 0x20 DUP4 ADD MSTORE POP PUSH1 0x40 PUSH2 0xC35 DUP5 DUP3 DUP6 ADD PUSH2 0x87A JUMP JUMPDEST PUSH1 0x40 DUP4 ADD MSTORE POP PUSH1 0x60 PUSH2 0xC49 DUP5 DUP3 DUP6 ADD PUSH2 0xBB0 JUMP JUMPDEST PUSH1 0x60 DUP4 ADD MSTORE POP PUSH1 0x80 PUSH2 0xC5D DUP5 DUP3 DUP6 ADD PUSH2 0x87A JUMP JUMPDEST PUSH1 0x80 DUP4 ADD MSTORE POP PUSH1 0xA0 PUSH2 0xC71 DUP5 DUP3 DUP6 ADD PUSH2 0x87A JUMP JUMPDEST PUSH1 0xA0 DUP4 ADD MSTORE POP PUSH1 0xC0 PUSH2 0xC85 DUP5 DUP3 DUP6 ADD PUSH2 0x87A JUMP JUMPDEST PUSH1 0xC0 DUP4 ADD MSTORE POP SWAP3 SWAP2 POP POP JUMP JUMPDEST PUSH0 PUSH8 0xFFFFFFFFFFFFFFFF DUP3 GT ISZERO PUSH2 0xCAB JUMPI PUSH2 0xCAA PUSH2 0xA6A JUMP JUMPDEST JUMPDEST PUSH2 0xCB4 DUP3 PUSH2 0xA5A JUMP JUMPDEST SWAP1 POP PUSH1 0x20 DUP2 ADD SWAP1 POP SWAP2 SWAP1 POP JUMP JUMPDEST PUSH0 PUSH2 0xCD3 PUSH2 0xCCE DUP5 PUSH2 0xC91 JUMP JUMPDEST PUSH2 0xAC8 JUMP JUMPDEST SWAP1 POP DUP3 DUP2 MSTORE PUSH1 0x20 DUP2 ADD DUP5 DUP5 DUP5 ADD GT ISZERO PUSH2 0xCEF JUMPI PUSH2 0xCEE PUSH2 0xAEA JUMP JUMPDEST JUMPDEST PUSH2 0xCFA DUP5 DUP3 DUP6 PUSH2 0xB1E JUMP JUMPDEST POP SWAP4 SWAP3 POP POP POP JUMP JUMPDEST PUSH0 DUP3 PUSH1 0x1F DUP4 ADD SLT PUSH2 0xD16 JUMPI PUSH2 0xD15 PUSH2 0xAE6 JUMP JUMPDEST JUMPDEST DUP2 CALLDATALOAD PUSH2 0xD26 DUP5 DUP3 PUSH1 0x20 DUP7 ADD PUSH2 0xCC1 JUMP JUMPDEST SWAP2 POP POP SWAP3 SWAP2 POP POP JUMP JUMPDEST PUSH0 DUP1 PUSH0 PUSH1 0x60 DUP5 DUP7 SUB SLT ISZERO PUSH2 0xD46 JUMPI PUSH2 0xD45 PUSH2 0x853 JUMP JUMPDEST JUMPDEST PUSH0 DUP5 ADD CALLDATALOAD PUSH8 0xFFFFFFFFFFFFFFFF DUP2 GT ISZERO PUSH2 0xD63 JUMPI PUSH2 0xD62 PUSH2 0x857 JUMP JUMPDEST JUMPDEST PUSH2 0xD6F DUP7 DUP3 DUP8 ADD PUSH2 0xBC4 JUMP JUMPDEST SWAP4 POP POP PUSH1 0x20 DUP5 ADD CALLDATALOAD PUSH8 0xFFFFFFFFFFFFFFFF DUP2 GT ISZERO PUSH2 0xD90 JUMPI PUSH2 0xD8F PUSH2 0x857 JUMP JUMPDEST JUMPDEST PUSH2 0xD9C DUP7 DUP3 DUP8 ADD PUSH2 0xD02 JUMP JUMPDEST SWAP3 POP POP PUSH1 0x40 PUSH2 0xDAD DUP7 DUP3 DUP8 ADD PUSH2 0x87A JUMP JUMPDEST SWAP2 POP POP SWAP3 POP SWAP3 POP SWAP3 JUMP JUMPDEST PUSH0 PUSH1 0x20 DUP3 ADD SWAP1 POP PUSH2 0xDCA PUSH0 DUP4 ADD DUP5 PUSH2 0x911 JUMP JUMPDEST SWAP3 SWAP2 POP POP JUMP JUMPDEST PUSH0 DUP2 MLOAD SWAP1 POP PUSH2 0xDDE DUP2 PUSH2 0xB9A JUMP JUMPDEST SWAP3 SWAP2 POP POP JUMP JUMPDEST PUSH0 PUSH1 0x20 DUP3 DUP5 SUB SLT ISZERO PUSH2 0xDF9 JUMPI PUSH2 0xDF8 PUSH2 0x853 JUMP JUMPDEST JUMPDEST PUSH0 PUSH2 0xE06 DUP5 DUP3 DUP6 ADD PUSH2 0xDD0 JUMP JUMPDEST SWAP2 POP POP SWAP3 SWAP2 POP POP JUMP JUMPDEST PUSH0 DUP3 DUP3 MSTORE PUSH1 0x20 DUP3 ADD SWAP1 POP SWAP3 SWAP2 POP POP JUMP JUMPDEST PUSH32 0x4167656E74206E6F742061637469766500000000000000000000000000000000 PUSH0 DUP3 ADD MSTORE POP JUMP JUMPDEST PUSH0 PUSH2 0xE53 PUSH1 0x10 DUP4 PUSH2 0xE0F JUMP JUMPDEST SWAP2 POP PUSH2 0xE5E DUP3 PUSH2 0xE1F JUMP JUMPDEST PUSH1 0x20 DUP3 ADD SWAP1 POP SWAP2 SWAP1 POP JUMP JUMPDEST PUSH0 PUSH1 0x20 DUP3 ADD SWAP1 POP DUP2 DUP2 SUB PUSH0 DUP4 ADD MSTORE PUSH2 0xE80 DUP2 PUSH2 0xE47 JUMP JUMPDEST SWAP1 POP SWAP2 SWAP1 POP JUMP JUMPDEST PUSH32 0x4E487B7100000000000000000000000000000000000000000000000000000000 PUSH0 MSTORE PUSH1 0x12 PUSH1 0x4 MSTORE PUSH1 0x24 PUSH0 REVERT JUMPDEST PUSH32 0x4E487B7100000000000000000000000000000000000000000000000000000000 PUSH0 MSTORE PUSH1 0x11 PUSH1 0x4 MSTORE PUSH1 0x24 PUSH0 REVERT JUMPDEST PUSH0 PUSH2 0xEEB DUP3 PUSH2 0x85B JUMP JUMPDEST SWAP2 POP PUSH2 0xEF6 DUP4 PUSH2 0x85B JUMP JUMPDEST SWAP3 POP DUP3 PUSH2 0xF06 JUMPI PUSH2 0xF05 PUSH2 0xE87 JUMP JUMPDEST JUMPDEST DUP3 DUP3 DIV SWAP1 POP SWAP3 SWAP2 POP POP JUMP JUMPDEST PUSH0 PUSH2 0xF1B DUP3 PUSH2 0x85B JUMP JUMPDEST SWAP2 POP PUSH2 0xF26 DUP4 PUSH2 0x85B JUMP JUMPDEST SWAP3 POP DUP3 DUP3 SUB SWAP1 POP DUP2 DUP2 GT ISZERO PUSH2 0xF3E JUMPI PUSH2 0xF3D PUSH2 0xEB4 JUMP JUMPDEST JUMPDEST SWAP3 SWAP2 POP POP JUMP JUMPDEST PUSH0 PUSH2 0xF4E DUP3 PUSH2 0x85B JUMP JUMPDEST SWAP2 POP PUSH2 0xF59 DUP4 PUSH2 0x85B JUMP JUMPDEST SWAP3 POP DUP3 DUP3 MUL PUSH2 0xF67 DUP2 PUSH2 0x85B JUMP JUMPDEST SWAP2 POP DUP3 DUP3 DIV DUP5 EQ DUP4 ISZERO OR PUSH2 0xF7E JUMPI PUSH2 0xF7D PUSH2 0xEB4 JUMP JUMPDEST JUMPDEST POP SWAP3 SWAP2 POP POP JUMP JUMPDEST PUSH32 0x4167656E74207061757365640000000000000000000000000000000000000000 PUSH0 DUP3 ADD MSTORE POP JUMP JUMPDEST PUSH0 PUSH2 0xFB9 PUSH1 0xC DUP4 PUSH2 0xE0F JUMP JUMPDEST SWAP2 POP PUSH2 0xFC4 DUP3 PUSH2 0xF85 JUMP JUMPDEST PUSH1 0x20 DUP3 ADD SWAP1 POP SWAP2 SWAP1 POP JUMP JUMPDEST PUSH0 PUSH1 0x20 DUP3 ADD SWAP1 POP DUP2 DUP2 SUB PUSH0 DUP4 ADD MSTORE PUSH2 0xFE6 DUP2 PUSH2 0xFAD JUMP JUMPDEST SWAP1 POP SWAP2 SWAP1 POP JUMP JUMPDEST PUSH32 0x4D61782064726177646F776E2065786365656465640000000000000000000000 PUSH0 DUP3 ADD MSTORE POP JUMP JUMPDEST PUSH0 PUSH2 0x1021 PUSH1 0x15 DUP4 PUSH2 0xE0F JUMP JUMPDEST SWAP2 POP PUSH2 0x102C DUP3 PUSH2 0xFED JUMP JUMPDEST PUSH1 0x20 DUP3 ADD SWAP1 POP SWAP2 SWAP1 POP JUMP JUMPDEST PUSH0 PUSH1 0x20 DUP3 ADD SWAP1 POP DUP2 DUP2 SUB PUSH0 DUP4 ADD MSTORE PUSH2 0x104E DUP2 PUSH2 0x1015 JUMP JUMPDEST SWAP1 POP SWAP2 SWAP1 POP JUMP JUMPDEST PUSH32 0x44726177646F776E206C696D6974000000000000000000000000000000000000 PUSH0 DUP3 ADD MSTORE POP JUMP JUMPDEST PUSH0 PUSH2 0x1089 PUSH1 0xE DUP4 PUSH2 0xE0F JUMP JUMPDEST SWAP2 POP PUSH2 0x1094 DUP3 PUSH2 0x1055 JUMP JUMPDEST PUSH1 0x20 DUP3 ADD SWAP1 POP SWAP2 SWAP1 POP JUMP JUMPDEST PUSH0 PUSH1 0x20 DUP3 ADD SWAP1 POP DUP2 DUP2 SUB PUSH0 DUP4 ADD MSTORE PUSH2 0x10B6 DUP2 PUSH2 0x107D JUMP JUMPDEST SWAP1 POP SWAP2 SWAP1 POP JUMP JUMPDEST PUSH32 0x4461696C79206C6F7373206C696D697400000000000000000000000000000000 PUSH0 DUP3 ADD MSTORE POP JUMP JUMPDEST PUSH0 PUSH2 0x10F1 PUSH1 0x10 DUP4 PUSH2 0xE0F JUMP JUMPDEST SWAP2 POP PUSH2 0x10FC DUP3 PUSH2 0x10BD JUMP JUMPDEST PUSH1 0x20 DUP3 ADD SWAP1 POP SWAP2 SWAP1 POP JUMP JUMPDEST PUSH0 PUSH1 0x20 DUP3 ADD SWAP1 POP DUP2 DUP2 SUB PUSH0 DUP4 ADD MSTORE PUSH2 0x111E DUP2 PUSH2 0x10E5 JUMP JUMPDEST SWAP1 POP SWAP2 SWAP1 POP JUMP JUMPDEST PUSH32 0x506F736974696F6E20746F6F206C617267650000000000000000000000000000 PUSH0 DUP3 ADD MSTORE POP JUMP JUMPDEST PUSH0 PUSH2 0x1159 PUSH1 0x12 DUP4 PUSH2 0xE0F JUMP JUMPDEST SWAP2 POP PUSH2 0x1164 DUP3 PUSH2 0x1125 JUMP JUMPDEST PUSH1 0x20 DUP3 ADD SWAP1 POP SWAP2 SWAP1 POP JUMP JUMPDEST PUSH0 PUSH1 0x20 DUP3 ADD SWAP1 POP DUP2 DUP2 SUB PUSH0 DUP4 ADD MSTORE PUSH2 0x1186 DUP2 PUSH2 0x114D JUMP JUMPDEST SWAP1 POP SWAP2 SWAP1 POP JUMP JUMPDEST PUSH2 0x1196 DUP2 PUSH2 0x85B JUMP JUMPDEST DUP3 MSTORE POP POP JUMP JUMPDEST PUSH0 DUP2 MLOAD SWAP1 POP SWAP2 SWAP1 POP JUMP JUMPDEST PUSH0 DUP3 DUP3 MSTORE PUSH1 0x20 DUP3 ADD SWAP1 POP SWAP3 SWAP2 POP POP JUMP JUMPDEST DUP3 DUP2 DUP4 MCOPY PUSH0 DUP4 DUP4 ADD MSTORE POP POP POP JUMP JUMPDEST PUSH0 PUSH2 0x11CE DUP3 PUSH2 0x119C JUMP JUMPDEST PUSH2 0x11D8 DUP2 DUP6 PUSH2 0x11A6 JUMP JUMPDEST SWAP4 POP PUSH2 0x11E8 DUP2 DUP6 PUSH1 0x20 DUP7 ADD PUSH2 0x11B6 JUMP JUMPDEST PUSH2 0x11F1 DUP2 PUSH2 0xA5A JUMP JUMPDEST DUP5 ADD SWAP2 POP POP SWAP3 SWAP2 POP POP JUMP JUMPDEST PUSH2 0x1205 DUP2 PUSH2 0x906 JUMP JUMPDEST DUP3 MSTORE POP POP JUMP JUMPDEST PUSH0 PUSH1 0xE0 DUP4 ADD PUSH0 DUP4 ADD MLOAD PUSH2 0x1220 PUSH0 DUP7 ADD DUP3 PUSH2 0x118D JUMP JUMPDEST POP PUSH1 0x20 DUP4 ADD MLOAD DUP5 DUP3 SUB PUSH1 0x20 DUP7 ADD MSTORE PUSH2 0x1238 DUP3 DUP3 PUSH2 0x11C4 JUMP JUMPDEST SWAP2 POP POP PUSH1 0x40 DUP4 ADD MLOAD PUSH2 0x124D PUSH1 0x40 DUP7 ADD DUP3 PUSH2 0x118D JUMP JUMPDEST POP PUSH1 0x60 DUP4 ADD MLOAD PUSH2 0x1260 PUSH1 0x60 DUP7 ADD DUP3 PUSH2 0x11FC JUMP JUMPDEST POP PUSH1 0x80 DUP4 ADD MLOAD PUSH2 0x1273 PUSH1 0x80 DUP7 ADD DUP3 PUSH2 0x118D JUMP JUMPDEST POP PUSH1 0xA0 DUP4 ADD MLOAD PUSH2 0x1286 PUSH1 0xA0 DUP7 ADD DUP3 PUSH2 0x118D JUMP JUMPDEST POP PUSH1 0xC0 DUP4 ADD MLOAD PUSH2 0x1299 PUSH1 0xC0 DUP7 ADD DUP3 PUSH2 0x118D JUMP JUMPDEST POP DUP1 SWAP2 POP POP SWAP3 SWAP2 POP POP JUMP JUMPDEST PUSH0 DUP2 MLOAD SWAP1 POP SWAP2 SWAP1 POP JUMP JUMPDEST PUSH0 DUP3 DUP3 MSTORE PUSH1 0x20 DUP3 ADD SWAP1 POP SWAP3 SWAP2 POP POP JUMP JUMPDEST PUSH0 PUSH2 0x12C8 DUP3 PUSH2 0x12A4 JUMP JUMPDEST PUSH2 0x12D2 DUP2 DUP6 PUSH2 0x12AE JUMP JUMPDEST SWAP4 POP PUSH2 0x12E2 DUP2 DUP6 PUSH1 0x20 DUP7 ADD PUSH2 0x11B6 JUMP JUMPDEST PUSH2 0x12EB DUP2 PUSH2 0xA5A JUMP JUMPDEST DUP5 ADD SWAP2 POP POP SWAP3 SWAP2 POP POP JUMP JUMPDEST PUSH0 PUSH1 0x40 DUP3 ADD SWAP1 POP DUP2 DUP2 SUB PUSH0 DUP4 ADD MSTORE PUSH2 0x130E DUP2 DUP6 PUSH2 0x120B JUMP JUMPDEST SWAP1 POP DUP2 DUP2 SUB PUSH1 0x20 DUP4 ADD MSTORE PUSH2 0x1322 DUP2 DUP5 PUSH2 0x12BE JUMP JUMPDEST SWAP1 POP SWAP4 SWAP3 POP POP POP JUMP JUMPDEST PUSH32 0x496E76616C6964207369676E6174757265000000000000000000000000000000 PUSH0 DUP3 ADD MSTORE POP JUMP JUMPDEST PUSH0 PUSH2 0x135F PUSH1 0x11 DUP4 PUSH2 0xE0F JUMP JUMPDEST SWAP2 POP PUSH2 0x136A DUP3 PUSH2 0x132B JUMP JUMPDEST PUSH1 0x20 DUP3 ADD SWAP1 POP SWAP2 SWAP1 POP JUMP JUMPDEST PUSH0 PUSH1 0x20 DUP3 ADD SWAP1 POP DUP2 DUP2 SUB PUSH0 DUP4 ADD MSTORE PUSH2 0x138C DUP2 PUSH2 0x1353 JUMP JUMPDEST SWAP1 POP SWAP2 SWAP1 POP JUMP JUMPDEST PUSH0 PUSH2 0x139D DUP3 PUSH2 0x119C JUMP JUMPDEST PUSH2 0x13A7 DUP2 DUP6 PUSH2 0xE0F JUMP JUMPDEST SWAP4 POP PUSH2 0x13B7 DUP2 DUP6 PUSH1 0x20 DUP7 ADD PUSH2 0x11B6 JUMP JUMPDEST PUSH2 0x13C0 DUP2 PUSH2 0xA5A JUMP JUMPDEST DUP5 ADD SWAP2 POP POP SWAP3 SWAP2 POP POP JUMP JUMPDEST PUSH0 PUSH1 0x40 DUP3 ADD SWAP1 POP DUP2 DUP2 SUB PUSH0 DUP4 ADD MSTORE PUSH2 0x13E3 DUP2 DUP6 PUSH2 0x1393 JUMP JUMPDEST SWAP1 POP PUSH2 0x13F2 PUSH1 0x20 DUP4 ADD DUP5 PUSH2 0x911 JUMP JUMPDEST SWAP4 SWAP3 POP POP POP JUMP INVALID LOG2 PUSH5 0x6970667358 0x22 SLT KECCAK256 0xA8 0xE3 SWAP8 SWAP7 PUSH19 0x200EF76359184B3FF0E9E31AFDB598AD7B6B59 0x23 0x2B SUB PC LOG4 SSTORE DUP13 DUP16 PUSH5 0x736F6C6343 STOP ADDMOD BYTE STOP CALLER "},"methodIdentifiers":{"DAILY_LOSS_BPS()":"1661db51","MAX_DRAWDOWN_BPS()":"3903df35","MAX_POSITION_USD6()":"a37155b4","agentStates(uint256)":"0d5c4799","getDrawdownBps(uint256)":"82f28158","initAgent(uint256,uint256)":"070c0871","registry()":"7b103999","routeTrade((uint256,string,uint256,bool,uint256,uint256,uint256),bytes,uint256)":"ab9c1e8a","updateAgentValue(uint256,uint256)":"5b7af5c0","validator()":"3a5381b5"}}}}}