{
  "_format": "hh-sol-artifact-1",
  "contractName": "TradeValidator",
  "sourceName": "contracts/TradeValidator.sol",
  "abi": [
    {
      "inputs": [
        {
          "internalType": "address",
          "name": "registryAddr",
          "type": "address"
        }
      ],
      "stateMutability": "nonpayable",
      "type": "constructor"
    },
    {
      "inputs": [],
      "name": "ECDSAInvalidSignature",
      "type": "error"
    },
    {
      "inputs": [
        {
          "internalType": "uint256",
          "name": "length",
          "type": "uint256"
        }
      ],
      "name": "ECDSAInvalidSignatureLength",
      "type": "error"
    },
    {
      "inputs": [
        {
          "internalType": "bytes32",
          "name": "s",
          "type": "bytes32"
        }
      ],
      "name": "ECDSAInvalidSignatureS",
      "type": "error"
    },
    {
      "inputs": [],
      "name": "InvalidShortString",
      "type": "error"
    },
    {
      "inputs": [
        {
          "internalType": "string",
          "name": "str",
          "type": "string"
        }
      ],
      "name": "StringTooLong",
      "type": "error"
    },
    {
      "anonymous": false,
      "inputs": [],
      "name": "EIP712DomainChanged",
      "type": "event"
    },
    {
      "anonymous": false,
      "inputs": [
        {
          "indexed": true,
          "internalType": "uint256",
          "name": "agentId",
          "type": "uint256"
        },
        {
          "indexed": false,
          "internalType": "string",
          "name": "pair",
          "type": "string"
        },
        {
          "indexed": false,
          "internalType": "bool",
          "name": "isBuy",
          "type": "bool"
        },
        {
          "indexed": false,
          "internalType": "uint256",
          "name": "volume",
          "type": "uint256"
        },
        {
          "indexed": false,
          "internalType": "uint256",
          "name": "price",
          "type": "uint256"
        }
      ],
      "name": "TradeValidated",
      "type": "event"
    },
    {
      "anonymous": false,
      "inputs": [
        {
          "indexed": true,
          "internalType": "uint256",
          "name": "agentId",
          "type": "uint256"
        },
        {
          "indexed": false,
          "internalType": "string",
          "name": "reason",
          "type": "string"
        }
      ],
      "name": "ValidationFailed",
      "type": "event"
    },
    {
      "inputs": [],
      "name": "TRADE_INTENT_TYPEHASH",
      "outputs": [
        {
          "internalType": "bytes32",
          "name": "",
          "type": "bytes32"
        }
      ],
      "stateMutability": "view",
      "type": "function"
    },
    {
      "inputs": [],
      "name": "eip712Domain",
      "outputs": [
        {
          "internalType": "bytes1",
          "name": "fields",
          "type": "bytes1"
        },
        {
          "internalType": "string",
          "name": "name",
          "type": "string"
        },
        {
          "internalType": "string",
          "name": "version",
          "type": "string"
        },
        {
          "internalType": "uint256",
          "name": "chainId",
          "type": "uint256"
        },
        {
          "internalType": "address",
          "name": "verifyingContract",
          "type": "address"
        },
        {
          "internalType": "bytes32",
          "name": "salt",
          "type": "bytes32"
        },
        {
          "internalType": "uint256[]",
          "name": "extensions",
          "type": "uint256[]"
        }
      ],
      "stateMutability": "view",
      "type": "function"
    },
    {
      "inputs": [],
      "name": "getDomainSeparator",
      "outputs": [
        {
          "internalType": "bytes32",
          "name": "",
          "type": "bytes32"
        }
      ],
      "stateMutability": "view",
      "type": "function"
    },
    {
      "inputs": [
        {
          "components": [
            {
              "internalType": "uint256",
              "name": "agentId",
              "type": "uint256"
            },
            {
              "internalType": "string",
              "name": "pair",
              "type": "string"
            },
            {
              "internalType": "uint256",
              "name": "volume",
              "type": "uint256"
            },
            {
              "internalType": "bool",
              "name": "isBuy",
              "type": "bool"
            },
            {
              "internalType": "uint256",
              "name": "price",
              "type": "uint256"
            },
            {
              "internalType": "uint256",
              "name": "deadline",
              "type": "uint256"
            },
            {
              "internalType": "uint256",
              "name": "nonce",
              "type": "uint256"
            }
          ],
          "internalType": "struct TradeValidator.TradeIntent",
          "name": "intent",
          "type": "tuple"
        }
      ],
      "name": "hashIntent",
      "outputs": [
        {
          "internalType": "bytes32",
          "name": "",
          "type": "bytes32"
        }
      ],
      "stateMutability": "view",
      "type": "function"
    },
    {
      "inputs": [
        {
          "internalType": "address",
          "name": "",
          "type": "address"
        }
      ],
      "name": "nonces",
      "outputs": [
        {
          "internalType": "uint256",
          "name": "",
          "type": "uint256"
        }
      ],
      "stateMutability": "view",
      "type": "function"
    },
    {
      "inputs": [],
      "name": "registry",
      "outputs": [
        {
          "internalType": "contract AgentRegistry",
          "name": "",
          "type": "address"
        }
      ],
      "stateMutability": "view",
      "type": "function"
    },
    {
      "inputs": [
        {
          "components": [
            {
              "internalType": "uint256",
              "name": "agentId",
              "type": "uint256"
            },
            {
              "internalType": "string",
              "name": "pair",
              "type": "string"
            },
            {
              "internalType": "uint256",
              "name": "volume",
              "type": "uint256"
            },
            {
              "internalType": "bool",
              "name": "isBuy",
              "type": "bool"
            },
            {
              "internalType": "uint256",
              "name": "price",
              "type": "uint256"
            },
            {
              "internalType": "uint256",
              "name": "deadline",
              "type": "uint256"
            },
            {
              "internalType": "uint256",
              "name": "nonce",
              "type": "uint256"
            }
          ],
          "internalType": "struct TradeValidator.TradeIntent",
          "name": "intent",
          "type": "tuple"
        },
        {
          "internalType": "bytes",
          "name": "signature",
          "type": "bytes"
        }
      ],
      "name": "validateTrade",
      "outputs": [
        {
          "internalType": "bool",
          "name": "",
          "type": "bool"
        }
      ],
      "stateMutability": "nonpayable",
      "type": "function"
    }
  ],
  "bytecode": "0x610180604052348015610010575f80fd5b50604051612355380380612355833981810160405281019061003291906102f5565b6040518060400160405280600d81526020017f53696e6162726f547261646572000000000000000000000000000000000000008152506040518060400160405280600181526020017f31000000000000000000000000000000000000000000000000000000000000008152506100b15f8361018260201b90919060201c565b61012081815250506100cd60018261018260201b90919060201c565b6101408181525050818051906020012060e08181525050808051906020012061010081815250504660a0818152505061010a6101cf60201b60201c565b608081815250503073ffffffffffffffffffffffffffffffffffffffff1660c08173ffffffffffffffffffffffffffffffffffffffff168152505050508073ffffffffffffffffffffffffffffffffffffffff166101608173ffffffffffffffffffffffffffffffffffffffff1681525050506107c9565b5f6020835110156101a35761019c8361022960201b60201c565b90506101c9565b826101b38361028e60201b60201c565b5f0190816101c1919061055a565b5060ff5f1b90505b92915050565b5f7f8b73c3c69bb8fe3d512ecc4cf759cc79239f7b179b0ffacaa9a75d522b39400f60e05161010051463060405160200161020e95949392919061065f565b60405160208183030381529060405280519060200120905090565b5f80829050601f8151111561027557826040517f305a27a900000000000000000000000000000000000000000000000000000000815260040161026c9190610716565b60405180910390fd5b80518161028190610763565b5f1c175f1b915050919050565b5f819050919050565b5f80fd5b5f73ffffffffffffffffffffffffffffffffffffffff82169050919050565b5f6102c48261029b565b9050919050565b6102d4816102ba565b81146102de575f80fd5b50565b5f815190506102ef816102cb565b92915050565b5f6020828403121561030a57610309610297565b5b5f610317848285016102e1565b91505092915050565b5f81519050919050565b7f4e487b71000000000000000000000000000000000000000000000000000000005f52604160045260245ffd5b7f4e487b71000000000000000000000000000000000000000000000000000000005f52602260045260245ffd5b5f600282049050600182168061039b57607f821691505b6020821081036103ae576103ad610357565b5b50919050565b5f819050815f5260205f209050919050565b5f6020601f8301049050919050565b5f82821b905092915050565b5f600883026104107fffffffffffffffffffffffffffffffffffffffffffffffffffffffffffffffff826103d5565b61041a86836103d5565b95508019841693508086168417925050509392505050565b5f819050919050565b5f819050919050565b5f61045e61045961045484610432565b61043b565b610432565b9050919050565b5f819050919050565b61047783610444565b61048b61048382610465565b8484546103e1565b825550505050565b5f90565b61049f610493565b6104aa81848461046e565b505050565b5b818110156104cd576104c25f82610497565b6001810190506104b0565b5050565b601f821115610512576104e3816103b4565b6104ec846103c6565b810160208510156104fb578190505b61050f610507856103c6565b8301826104af565b50505b505050565b5f82821c905092915050565b5f6105325f1984600802610517565b1980831691505092915050565b5f61054a8383610523565b9150826002028217905092915050565b61056382610320565b67ffffffffffffffff81111561057c5761057b61032a565b5b6105868254610384565b6105918282856104d1565b5f60209050601f8311600181146105c2575f84156105b0578287015190505b6105ba858261053f565b865550610621565b601f1984166105d0866103b4565b5f5b828110156105f7578489015182556001820191506020850194506020810190506105d2565b868310156106145784890151610610601f891682610523565b8355505b6001600288020188555050505b505050505050565b5f819050919050565b61063b81610629565b82525050565b61064a81610432565b82525050565b610659816102ba565b82525050565b5f60a0820190506106725f830188610632565b61067f6020830187610632565b61068c6040830186610632565b6106996060830185610641565b6106a66080830184610650565b9695505050505050565b5f82825260208201905092915050565b8281835e5f83830152505050565b5f601f19601f8301169050919050565b5f6106e882610320565b6106f281856106b0565b93506107028185602086016106c0565b61070b816106ce565b840191505092915050565b5f6020820190508181035f83015261072e81846106de565b905092915050565b5f81519050919050565b5f819050602082019050919050565b5f61075a8251610629565b80915050919050565b5f61076d82610736565b8261077784610740565b90506107828161074f565b925060208210156107c2576107bd7fffffffffffffffffffffffffffffffffffffffffffffffffffffffffffffffff836020036008026103d5565b831692505b5050919050565b60805160a05160c05160e05161010051610120516101405161016051611b236108325f395f81816101d7015281816102b2015261056d01525f61082901525f6107ee01525f610a6d01525f610a4c01525f61085e01525f6108b401525f6108dd0152611b235ff3fe608060405234801561000f575f80fd5b506004361061007b575f3560e01c80637ecebe00116100595780637ecebe00146100fd57806384b0196e1461012d578063912e67cf14610151578063ed24911d1461016f5761007b565b80632eff4b511461007f578063318cd41d146100af5780637b103999146100df575b5f80fd5b61009960048036038101906100949190611143565b61018d565b6040516100a691906111c8565b60405180910390f35b6100c960048036038101906100c491906111e1565b6104e4565b6040516100d69190611240565b60405180910390f35b6100e761056b565b6040516100f491906112d3565b60405180910390f35b61011760048036038101906101129190611327565b61058f565b6040516101249190611361565b60405180910390f35b6101356105a4565b60405161014897969594939291906114da565b60405180910390f35b610159610649565b6040516101669190611240565b60405180910390f35b61017761066d565b6040516101849190611240565b60405180910390f35b5f8260a001514211156101d5576040517f08c379a00000000000000000000000000000000000000000000000000000000081526004016101cc906115a6565b60405180910390fd5b7f000000000000000000000000000000000000000000000000000000000000000073ffffffffffffffffffffffffffffffffffffffff166382afd23b845f01516040518263ffffffff1660e01b81526004016102319190611361565b602060405180830381865afa15801561024c573d5f803e3d5ffd5b505050506040513d601f19601f8201168201806040525081019061027091906115d8565b6102af576040517f08c379a00000000000000000000000000000000000000000000000000000000081526004016102a69061164d565b60405180910390fd5b5f7f000000000000000000000000000000000000000000000000000000000000000073ffffffffffffffffffffffffffffffffffffffff16636352211e855f01516040518263ffffffff1660e01b815260040161030c9190611361565b602060405180830381865afa158015610327573d5f803e3d5ffd5b505050506040513d601f19601f8201168201806040525081019061034b919061167f565b905060025f8273ffffffffffffffffffffffffffffffffffffffff1673ffffffffffffffffffffffffffffffffffffffff1681526020019081526020015f20548460c00151146103d0576040517f08c379a00000000000000000000000000000000000000000000000000000000081526004016103c7906116f4565b60405180910390fd5b5f6103da856104e4565b90505f6103e883838761067b565b90508061043357855f01517f4405a84102a2f93f270f12471551aa942ccc819d82a2d7a1b2ca42ff0485f8b36040516104209061175c565b60405180910390a25f93505050506104de565b60025f8473ffffffffffffffffffffffffffffffffffffffff1673ffffffffffffffffffffffffffffffffffffffff1681526020019081526020015f205f815480929190610480906117a7565b9190505550855f01517fcb5071b78fa6a18fcf5685ebef733a60f74f86b4c64d96e8b98a21bb7568ee768760200151886060015189604001518a608001516040516104ce94939291906117ee565b60405180910390a2600193505050505b92915050565b5f6105647f67a5a1d70869855eeb60db6737ef08834980bad4e56ad527c666d52bf43c9b8a835f01518460200151805190602001208560400151866060015187608001518860a001518960c00151604051602001610549989796959493929190611838565b604051602081830303815290604052805190602001206107cd565b9050919050565b7f000000000000000000000000000000000000000000000000000000000000000081565b6002602052805f5260405f205f915090505481565b5f6060805f805f60606105b56107e6565b6105bd610820565b46305f801b5f67ffffffffffffffff8111156105dc576105db610e40565b5b60405190808252806020026020018201604052801561060a5781602001602082028036833780820191505090505b507f0f00000000000000000000000000000000000000000000000000000000000000959493929190965096509650965096509650965090919293949596565b7f67a5a1d70869855eeb60db6737ef08834980bad4e56ad527c666d52bf43c9b8a81565b5f61067661085b565b905090565b5f80610690838561091190919063ffffffff16565b90508473ffffffffffffffffffffffffffffffffffffffff168173ffffffffffffffffffffffffffffffffffffffff16036106cf5760019150506107c6565b5f8573ffffffffffffffffffffffffffffffffffffffff163b11156107c1578473ffffffffffffffffffffffffffffffffffffffff16631626ba7e85856040518363ffffffff1660e01b8152600401610729929190611906565b602060405180830381865afa92505050801561076357506040513d601f19601f820116820180604052508101906107609190611989565b60015b610770575f9150506107c6565b631626ba7e60e01b7bffffffffffffffffffffffffffffffffffffffffffffffffffffffff1916817bffffffffffffffffffffffffffffffffffffffffffffffffffffffff191614925050506107c6565b5f9150505b9392505050565b5f6107df6107d961085b565b8361093b565b9050919050565b606061081b5f7f000000000000000000000000000000000000000000000000000000000000000061097b90919063ffffffff16565b905090565b606061085660017f000000000000000000000000000000000000000000000000000000000000000061097b90919063ffffffff16565b905090565b5f7f000000000000000000000000000000000000000000000000000000000000000073ffffffffffffffffffffffffffffffffffffffff163073ffffffffffffffffffffffffffffffffffffffff161480156108d657507f000000000000000000000000000000000000000000000000000000000000000046145b15610903577f0000000000000000000000000000000000000000000000000000000000000000905061090e565b61090b610a28565b90505b90565b5f805f8061091f8686610abd565b92509250925061092f8282610b12565b82935050505092915050565b5f6040517f190100000000000000000000000000000000000000000000000000000000000081528360028201528260228201526042812091505092915050565b606060ff5f1b83146109975761099083610c74565b9050610a22565b8180546109a3906119e1565b80601f01602080910402602001604051908101604052809291908181526020018280546109cf906119e1565b8015610a1a5780601f106109f157610100808354040283529160200191610a1a565b820191905f5260205f20905b8154815290600101906020018083116109fd57829003601f168201915b505050505090505b92915050565b5f7f8b73c3c69bb8fe3d512ecc4cf759cc79239f7b179b0ffacaa9a75d522b39400f7f00000000000000000000000000000000000000000000000000000000000000007f00000000000000000000000000000000000000000000000000000000000000004630604051602001610aa2959493929190611a11565b60405160208183030381529060405280519060200120905090565b5f805f6041845103610afd575f805f602087015192506040870151915060608701515f1a9050610aef88828585610ce6565b955095509550505050610b0b565b5f600285515f1b9250925092505b9250925092565b5f6003811115610b2557610b24611a62565b5b826003811115610b3857610b37611a62565b5b0315610c705760016003811115610b5257610b51611a62565b5b826003811115610b6557610b64611a62565b5b03610b9c576040517ff645eedf00000000000000000000000000000000000000000000000000000000815260040160405180910390fd5b60026003811115610bb057610baf611a62565b5b826003811115610bc357610bc2611a62565b5b03610c0757805f1c6040517ffce698f7000000000000000000000000000000000000000000000000000000008152600401610bfe9190611361565b60405180910390fd5b600380811115610c1a57610c19611a62565b5b826003811115610c2d57610c2c611a62565b5b03610c6f57806040517fd78bce0c000000000000000000000000000000000000000000000000000000008152600401610c669190611240565b60405180910390fd5b5b5050565b60605f610c8083610dcd565b90505f602067ffffffffffffffff811115610c9e57610c9d610e40565b5b6040519080825280601f01601f191660200182016040528015610cd05781602001600182028036833780820191505090505b5090508181528360208201528092505050919050565b5f805f7f7fffffffffffffffffffffffffffffff5d576e7357a4501ddfe92f46681b20a0845f1c1115610d22575f600385925092509250610dc3565b5f6001888888886040515f8152602001604052604051610d459493929190611aaa565b6020604051602081039080840390855afa158015610d65573d5f803e3d5ffd5b5050506020604051035190505f73ffffffffffffffffffffffffffffffffffffffff168173ffffffffffffffffffffffffffffffffffffffff1603610db6575f60015f801b93509350935050610dc3565b805f805f1b935093509350505b9450945094915050565b5f8060ff835f1c169050601f811115610e12576040517fb3512b0c00000000000000000000000000000000000000000000000000000000815260040160405180910390fd5b80915050919050565b5f604051905090565b5f80fd5b5f80fd5b5f80fd5b5f601f19601f8301169050919050565b7f4e487b71000000000000000000000000000000000000000000000000000000005f52604160045260245ffd5b610e7682610e30565b810181811067ffffffffffffffff82111715610e9557610e94610e40565b5b80604052505050565b5f610ea7610e1b565b9050610eb38282610e6d565b919050565b5f80fd5b5f819050919050565b610ece81610ebc565b8114610ed8575f80fd5b50565b5f81359050610ee981610ec5565b92915050565b5f80fd5b5f80fd5b5f67ffffffffffffffff821115610f1157610f10610e40565b5b610f1a82610e30565b9050602081019050919050565b828183375f83830152505050565b5f610f47610f4284610ef7565b610e9e565b905082815260208101848484011115610f6357610f62610ef3565b5b610f6e848285610f27565b509392505050565b5f82601f830112610f8a57610f89610eef565b5b8135610f9a848260208601610f35565b91505092915050565b5f8115159050919050565b610fb781610fa3565b8114610fc1575f80fd5b50565b5f81359050610fd281610fae565b92915050565b5f60e08284031215610fed57610fec610e2c565b5b610ff760e0610e9e565b90505f61100684828501610edb565b5f83015250602082013567ffffffffffffffff81111561102957611028610eb8565b5b61103584828501610f76565b602083015250604061104984828501610edb565b604083015250606061105d84828501610fc4565b606083015250608061107184828501610edb565b60808301525060a061108584828501610edb565b60a08301525060c061109984828501610edb565b60c08301525092915050565b5f67ffffffffffffffff8211156110bf576110be610e40565b5b6110c882610e30565b9050602081019050919050565b5f6110e76110e2846110a5565b610e9e565b90508281526020810184848401111561110357611102610ef3565b5b61110e848285610f27565b509392505050565b5f82601f83011261112a57611129610eef565b5b813561113a8482602086016110d5565b91505092915050565b5f806040838503121561115957611158610e24565b5b5f83013567ffffffffffffffff81111561117657611175610e28565b5b61118285828601610fd8565b925050602083013567ffffffffffffffff8111156111a3576111a2610e28565b5b6111af85828601611116565b9150509250929050565b6111c281610fa3565b82525050565b5f6020820190506111db5f8301846111b9565b92915050565b5f602082840312156111f6576111f5610e24565b5b5f82013567ffffffffffffffff81111561121357611212610e28565b5b61121f84828501610fd8565b91505092915050565b5f819050919050565b61123a81611228565b82525050565b5f6020820190506112535f830184611231565b92915050565b5f73ffffffffffffffffffffffffffffffffffffffff82169050919050565b5f819050919050565b5f61129b61129661129184611259565b611278565b611259565b9050919050565b5f6112ac82611281565b9050919050565b5f6112bd826112a2565b9050919050565b6112cd816112b3565b82525050565b5f6020820190506112e65f8301846112c4565b92915050565b5f6112f682611259565b9050919050565b611306816112ec565b8114611310575f80fd5b50565b5f81359050611321816112fd565b92915050565b5f6020828403121561133c5761133b610e24565b5b5f61134984828501611313565b91505092915050565b61135b81610ebc565b82525050565b5f6020820190506113745f830184611352565b92915050565b5f7fff0000000000000000000000000000000000000000000000000000000000000082169050919050565b6113ae8161137a565b82525050565b5f81519050919050565b5f82825260208201905092915050565b8281835e5f83830152505050565b5f6113e6826113b4565b6113f081856113be565b93506114008185602086016113ce565b61140981610e30565b840191505092915050565b61141d816112ec565b82525050565b5f81519050919050565b5f82825260208201905092915050565b5f819050602082019050919050565b61145581610ebc565b82525050565b5f611466838361144c565b60208301905092915050565b5f602082019050919050565b5f61148882611423565b611492818561142d565b935061149d8361143d565b805f5b838110156114cd5781516114b4888261145b565b97506114bf83611472565b9250506001810190506114a0565b5085935050505092915050565b5f60e0820190506114ed5f83018a6113a5565b81810360208301526114ff81896113dc565b9050818103604083015261151381886113dc565b90506115226060830187611352565b61152f6080830186611414565b61153c60a0830185611231565b81810360c083015261154e818461147e565b905098975050505050505050565b7f496e74656e7420657870697265640000000000000000000000000000000000005f82015250565b5f611590600e836113be565b915061159b8261155c565b602082019050919050565b5f6020820190508181035f8301526115bd81611584565b9050919050565b5f815190506115d281610fae565b92915050565b5f602082840312156115ed576115ec610e24565b5b5f6115fa848285016115c4565b91505092915050565b7f4167656e74206e6f7420616374697665000000000000000000000000000000005f82015250565b5f6116376010836113be565b915061164282611603565b602082019050919050565b5f6020820190508181035f8301526116648161162b565b9050919050565b5f81519050611679816112fd565b92915050565b5f6020828403121561169457611693610e24565b5b5f6116a18482850161166b565b91505092915050565b7f496e76616c6964206e6f6e6365000000000000000000000000000000000000005f82015250565b5f6116de600d836113be565b91506116e9826116aa565b602082019050919050565b5f6020820190508181035f83015261170b816116d2565b9050919050565b7f496e76616c6964207369676e61747572650000000000000000000000000000005f82015250565b5f6117466011836113be565b915061175182611712565b602082019050919050565b5f6020820190508181035f8301526117738161173a565b9050919050565b7f4e487b71000000000000000000000000000000000000000000000000000000005f52601160045260245ffd5b5f6117b182610ebc565b91507fffffffffffffffffffffffffffffffffffffffffffffffffffffffffffffffff82036117e3576117e261177a565b5b600182019050919050565b5f6080820190508181035f83015261180681876113dc565b905061181560208301866111b9565b6118226040830185611352565b61182f6060830184611352565b95945050505050565b5f6101008201905061184c5f83018b611231565b611859602083018a611352565b6118666040830189611231565b6118736060830188611352565b61188060808301876111b9565b61188d60a0830186611352565b61189a60c0830185611352565b6118a760e0830184611352565b9998505050505050505050565b5f81519050919050565b5f82825260208201905092915050565b5f6118d8826118b4565b6118e281856118be565b93506118f28185602086016113ce565b6118fb81610e30565b840191505092915050565b5f6040820190506119195f830185611231565b818103602083015261192b81846118ce565b90509392505050565b5f7fffffffff0000000000000000000000000000000000000000000000000000000082169050919050565b61196881611934565b8114611972575f80fd5b50565b5f815190506119838161195f565b92915050565b5f6020828403121561199e5761199d610e24565b5b5f6119ab84828501611975565b91505092915050565b7f4e487b71000000000000000000000000000000000000000000000000000000005f52602260045260245ffd5b5f60028204905060018216806119f857607f821691505b602082108103611a0b57611a0a6119b4565b5b50919050565b5f60a082019050611a245f830188611231565b611a316020830187611231565b611a3e6040830186611231565b611a4b6060830185611352565b611a586080830184611414565b9695505050505050565b7f4e487b71000000000000000000000000000000000000000000000000000000005f52602160045260245ffd5b5f60ff82169050919050565b611aa481611a8f565b82525050565b5f608082019050611abd5f830187611231565b611aca6020830186611a9b565b611ad76040830185611231565b611ae46060830184611231565b9594505050505056fea264697066735822122064e0ca15c6aad0dec7f1adf4f05e3d3f9d3f48be1e01c8d0cfe39b34a2281a4b64736f6c634300081a0033",
  "linkReferences": {},
  "deployedLinkReferences": {}
}