{
  "_format": "hh-sol-artifact-1",
  "contractName": "AgentRegistry",
  "sourceName": "contracts/AgentRegistry.sol",
  "abi": [
    {
      "inputs": [],
      "stateMutability": "nonpayable",
      "type": "constructor"
    },
    {
      "inputs": [
        {
          "internalType": "address",
          "name": "sender",
          "type": "address"
        },
        {
          "internalType": "uint256",
          "name": "tokenId",
          "type": "uint256"
        },
        {
          "internalType": "address",
          "name": "owner",
          "type": "address"
        }
      ],
      "name": "ERC721IncorrectOwner",
      "type": "error"
    },
    {
      "inputs": [
        {
          "internalType": "address",
          "name": "operator",
          "type": "address"
        },
        {
          "internalType": "uint256",
          "name": "tokenId",
          "type": "uint256"
        }
      ],
      "name": "ERC721InsufficientApproval",
      "type": "error"
    },
    {
      "inputs": [
        {
          "internalType": "address",
          "name": "approver",
          "type": "address"
        }
      ],
      "name": "ERC721InvalidApprover",
      "type": "error"
    },
    {
      "inputs": [
        {
          "internalType": "address",
          "name": "operator",
          "type": "address"
        }
      ],
      "name": "ERC721InvalidOperator",
      "type": "error"
    },
    {
      "inputs": [
        {
          "internalType": "address",
          "name": "owner",
          "type": "address"
        }
      ],
      "name": "ERC721InvalidOwner",
      "type": "error"
    },
    {
      "inputs": [
        {
          "internalType": "address",
          "name": "receiver",
          "type": "address"
        }
      ],
      "name": "ERC721InvalidReceiver",
      "type": "error"
    },
    {
      "inputs": [
        {
          "internalType": "address",
          "name": "sender",
          "type": "address"
        }
      ],
      "name": "ERC721InvalidSender",
      "type": "error"
    },
    {
      "inputs": [
        {
          "internalType": "uint256",
          "name": "tokenId",
          "type": "uint256"
        }
      ],
      "name": "ERC721NonexistentToken",
      "type": "error"
    },
    {
      "inputs": [
        {
          "internalType": "address",
          "name": "owner",
          "type": "address"
        }
      ],
      "name": "OwnableInvalidOwner",
      "type": "error"
    },
    {
      "inputs": [
        {
          "internalType": "address",
          "name": "account",
          "type": "address"
        }
      ],
      "name": "OwnableUnauthorizedAccount",
      "type": "error"
    },
    {
      "anonymous": false,
      "inputs": [
        {
          "indexed": true,
          "internalType": "uint256",
          "name": "agentId",
          "type": "uint256"
        }
      ],
      "name": "AgentDeactivated",
      "type": "event"
    },
    {
      "anonymous": false,
      "inputs": [
        {
          "indexed": true,
          "internalType": "uint256",
          "name": "agentId",
          "type": "uint256"
        },
        {
          "indexed": true,
          "internalType": "address",
          "name": "owner",
          "type": "address"
        },
        {
          "indexed": false,
          "internalType": "string",
          "name": "name",
          "type": "string"
        }
      ],
      "name": "AgentRegistered",
      "type": "event"
    },
    {
      "anonymous": false,
      "inputs": [
        {
          "indexed": true,
          "internalType": "address",
          "name": "owner",
          "type": "address"
        },
        {
          "indexed": true,
          "internalType": "address",
          "name": "approved",
          "type": "address"
        },
        {
          "indexed": true,
          "internalType": "uint256",
          "name": "tokenId",
          "type": "uint256"
        }
      ],
      "name": "Approval",
      "type": "event"
    },
    {
      "anonymous": false,
      "inputs": [
        {
          "indexed": true,
          "internalType": "address",
          "name": "owner",
          "type": "address"
        },
        {
          "indexed": true,
          "internalType": "address",
          "name": "operator",
          "type": "address"
        },
        {
          "indexed": false,
          "internalType": "bool",
          "name": "approved",
          "type": "bool"
        }
      ],
      "name": "ApprovalForAll",
      "type": "event"
    },
    {
      "anonymous": false,
      "inputs": [
        {
          "indexed": true,
          "internalType": "address",
          "name": "previousOwner",
          "type": "address"
        },
        {
          "indexed": true,
          "internalType": "address",
          "name": "newOwner",
          "type": "address"
        }
      ],
      "name": "OwnershipTransferred",
      "type": "event"
    },
    {
      "anonymous": false,
      "inputs": [
        {
          "indexed": true,
          "internalType": "uint256",
          "name": "agentId",
          "type": "uint256"
        },
        {
          "indexed": false,
          "internalType": "int256",
          "name": "pnl",
          "type": "int256"
        },
        {
          "indexed": false,
          "internalType": "uint256",
          "name": "sharpe",
          "type": "uint256"
        },
        {
          "indexed": false,
          "internalType": "uint256",
          "name": "drawdownBps",
          "type": "uint256"
        }
      ],
      "name": "ScoreUpdated",
      "type": "event"
    },
    {
      "anonymous": false,
      "inputs": [
        {
          "indexed": true,
          "internalType": "address",
          "name": "from",
          "type": "address"
        },
        {
          "indexed": true,
          "internalType": "address",
          "name": "to",
          "type": "address"
        },
        {
          "indexed": true,
          "internalType": "uint256",
          "name": "tokenId",
          "type": "uint256"
        }
      ],
      "name": "Transfer",
      "type": "event"
    },
    {
      "inputs": [
        {
          "internalType": "uint256",
          "name": "",
          "type": "uint256"
        }
      ],
      "name": "agents",
      "outputs": [
        {
          "internalType": "address",
          "name": "owner",
          "type": "address"
        },
        {
          "internalType": "string",
          "name": "strategyURI",
          "type": "string"
        },
        {
          "internalType": "string",
          "name": "name",
          "type": "string"
        },
        {
          "internalType": "uint256",
          "name": "registeredAt",
          "type": "uint256"
        },
        {
          "internalType": "bool",
          "name": "active",
          "type": "bool"
        }
      ],
      "stateMutability": "view",
      "type": "function"
    },
    {
      "inputs": [
        {
          "internalType": "address",
          "name": "to",
          "type": "address"
        },
        {
          "internalType": "uint256",
          "name": "tokenId",
          "type": "uint256"
        }
      ],
      "name": "approve",
      "outputs": [],
      "stateMutability": "nonpayable",
      "type": "function"
    },
    {
      "inputs": [
        {
          "internalType": "address",
          "name": "",
          "type": "address"
        }
      ],
      "name": "authorizedUpdaters",
      "outputs": [
        {
          "internalType": "bool",
          "name": "",
          "type": "bool"
        }
      ],
      "stateMutability": "view",
      "type": "function"
    },
    {
      "inputs": [
        {
          "internalType": "address",
          "name": "owner",
          "type": "address"
        }
      ],
      "name": "balanceOf",
      "outputs": [
        {
          "internalType": "uint256",
          "name": "",
          "type": "uint256"
        }
      ],
      "stateMutability": "view",
      "type": "function"
    },
    {
      "inputs": [
        {
          "internalType": "uint256",
          "name": "agentId",
          "type": "uint256"
        }
      ],
      "name": "deactivateAgent",
      "outputs": [],
      "stateMutability": "nonpayable",
      "type": "function"
    },
    {
      "inputs": [
        {
          "internalType": "address",
          "name": "owner",
          "type": "address"
        }
      ],
      "name": "getAgentId",
      "outputs": [
        {
          "internalType": "uint256",
          "name": "",
          "type": "uint256"
        }
      ],
      "stateMutability": "view",
      "type": "function"
    },
    {
      "inputs": [
        {
          "internalType": "uint256",
          "name": "tokenId",
          "type": "uint256"
        }
      ],
      "name": "getApproved",
      "outputs": [
        {
          "internalType": "address",
          "name": "",
          "type": "address"
        }
      ],
      "stateMutability": "view",
      "type": "function"
    },
    {
      "inputs": [
        {
          "internalType": "uint256",
          "name": "agentId",
          "type": "uint256"
        }
      ],
      "name": "isActive",
      "outputs": [
        {
          "internalType": "bool",
          "name": "",
          "type": "bool"
        }
      ],
      "stateMutability": "view",
      "type": "function"
    },
    {
      "inputs": [
        {
          "internalType": "address",
          "name": "owner",
          "type": "address"
        },
        {
          "internalType": "address",
          "name": "operator",
          "type": "address"
        }
      ],
      "name": "isApprovedForAll",
      "outputs": [
        {
          "internalType": "bool",
          "name": "",
          "type": "bool"
        }
      ],
      "stateMutability": "view",
      "type": "function"
    },
    {
      "inputs": [],
      "name": "name",
      "outputs": [
        {
          "internalType": "string",
          "name": "",
          "type": "string"
        }
      ],
      "stateMutability": "view",
      "type": "function"
    },
    {
      "inputs": [],
      "name": "owner",
      "outputs": [
        {
          "internalType": "address",
          "name": "",
          "type": "address"
        }
      ],
      "stateMutability": "view",
      "type": "function"
    },
    {
      "inputs": [
        {
          "internalType": "uint256",
          "name": "tokenId",
          "type": "uint256"
        }
      ],
      "name": "ownerOf",
      "outputs": [
        {
          "internalType": "address",
          "name": "",
          "type": "address"
        }
      ],
      "stateMutability": "view",
      "type": "function"
    },
    {
      "inputs": [
        {
          "internalType": "address",
          "name": "",
          "type": "address"
        }
      ],
      "name": "ownerToAgentId",
      "outputs": [
        {
          "internalType": "uint256",
          "name": "",
          "type": "uint256"
        }
      ],
      "stateMutability": "view",
      "type": "function"
    },
    {
      "inputs": [
        {
          "internalType": "string",
          "name": "name",
          "type": "string"
        },
        {
          "internalType": "string",
          "name": "strategyURI",
          "type": "string"
        }
      ],
      "name": "registerAgent",
      "outputs": [
        {
          "internalType": "uint256",
          "name": "",
          "type": "uint256"
        }
      ],
      "stateMutability": "nonpayable",
      "type": "function"
    },
    {
      "inputs": [],
      "name": "renounceOwnership",
      "outputs": [],
      "stateMutability": "nonpayable",
      "type": "function"
    },
    {
      "inputs": [
        {
          "internalType": "address",
          "name": "from",
          "type": "address"
        },
        {
          "internalType": "address",
          "name": "to",
          "type": "address"
        },
        {
          "internalType": "uint256",
          "name": "tokenId",
          "type": "uint256"
        }
      ],
      "name": "safeTransferFrom",
      "outputs": [],
      "stateMutability": "nonpayable",
      "type": "function"
    },
    {
      "inputs": [
        {
          "internalType": "address",
          "name": "from",
          "type": "address"
        },
        {
          "internalType": "address",
          "name": "to",
          "type": "address"
        },
        {
          "internalType": "uint256",
          "name": "tokenId",
          "type": "uint256"
        },
        {
          "internalType": "bytes",
          "name": "data",
          "type": "bytes"
        }
      ],
      "name": "safeTransferFrom",
      "outputs": [],
      "stateMutability": "nonpayable",
      "type": "function"
    },
    {
      "inputs": [
        {
          "internalType": "uint256",
          "name": "",
          "type": "uint256"
        }
      ],
      "name": "scores",
      "outputs": [
        {
          "internalType": "int256",
          "name": "totalPnl",
          "type": "int256"
        },
        {
          "internalType": "uint256",
          "name": "sharpeRatio",
          "type": "uint256"
        },
        {
          "internalType": "uint256",
          "name": "maxDrawdownBps",
          "type": "uint256"
        },
        {
          "internalType": "uint256",
          "name": "tradeCount",
          "type": "uint256"
        },
        {
          "internalType": "uint256",
          "name": "winCount",
          "type": "uint256"
        },
        {
          "internalType": "uint256",
          "name": "lastUpdated",
          "type": "uint256"
        }
      ],
      "stateMutability": "view",
      "type": "function"
    },
    {
      "inputs": [
        {
          "internalType": "address",
          "name": "operator",
          "type": "address"
        },
        {
          "internalType": "bool",
          "name": "approved",
          "type": "bool"
        }
      ],
      "name": "setApprovalForAll",
      "outputs": [],
      "stateMutability": "nonpayable",
      "type": "function"
    },
    {
      "inputs": [
        {
          "internalType": "address",
          "name": "updater",
          "type": "address"
        },
        {
          "internalType": "bool",
          "name": "status",
          "type": "bool"
        }
      ],
      "name": "setAuthorizedUpdater",
      "outputs": [],
      "stateMutability": "nonpayable",
      "type": "function"
    },
    {
      "inputs": [
        {
          "internalType": "bytes4",
          "name": "interfaceId",
          "type": "bytes4"
        }
      ],
      "name": "supportsInterface",
      "outputs": [
        {
          "internalType": "bool",
          "name": "",
          "type": "bool"
        }
      ],
      "stateMutability": "view",
      "type": "function"
    },
    {
      "inputs": [],
      "name": "symbol",
      "outputs": [
        {
          "internalType": "string",
          "name": "",
          "type": "string"
        }
      ],
      "stateMutability": "view",
      "type": "function"
    },
    {
      "inputs": [
        {
          "internalType": "uint256",
          "name": "tokenId",
          "type": "uint256"
        }
      ],
      "name": "tokenURI",
      "outputs": [
        {
          "internalType": "string",
          "name": "",
          "type": "string"
        }
      ],
      "stateMutability": "view",
      "type": "function"
    },
    {
      "inputs": [
        {
          "internalType": "address",
          "name": "from",
          "type": "address"
        },
        {
          "internalType": "address",
          "name": "to",
          "type": "address"
        },
        {
          "internalType": "uint256",
          "name": "tokenId",
          "type": "uint256"
        }
      ],
      "name": "transferFrom",
      "outputs": [],
      "stateMutability": "nonpayable",
      "type": "function"
    },
    {
      "inputs": [
        {
          "internalType": "address",
          "name": "newOwner",
          "type": "address"
        }
      ],
      "name": "transferOwnership",
      "outputs": [],
      "stateMutability": "nonpayable",
      "type": "function"
    },
    {
      "inputs": [
        {
          "internalType": "uint256",
          "name": "agentId",
          "type": "uint256"
        },
        {
          "internalType": "int256",
          "name": "pnlDelta",
          "type": "int256"
        },
        {
          "internalType": "uint256",
          "name": "sharpe",
          "type": "uint256"
        },
        {
          "internalType": "uint256",
          "name": "drawdownBps",
          "type": "uint256"
        },
        {
          "internalType": "bool",
          "name": "isWin",
          "type": "bool"
        }
      ],
      "name": "updateScore",
      "outputs": [],
      "stateMutability": "nonpayable",
      "type": "function"
    }
  ],
  "bytecode": "0x608060405234801561000f575f80fd5b50336040518060400160405280600c81526020017f53696e6162726f4167656e7400000000000000000000000000000000000000008152506040518060400160405280600681526020017f534147454e540000000000000000000000000000000000000000000000000000815250815f908161008b9190610420565b50806001908161009b9190610420565b5050505f73ffffffffffffffffffffffffffffffffffffffff168173ffffffffffffffffffffffffffffffffffffffff160361010e575f6040517f1e4fbdf7000000000000000000000000000000000000000000000000000000008152600401610105919061052e565b60405180910390fd5b61011d8161012360201b60201c565b50610547565b5f60065f9054906101000a900473ffffffffffffffffffffffffffffffffffffffff1690508160065f6101000a81548173ffffffffffffffffffffffffffffffffffffffff021916908373ffffffffffffffffffffffffffffffffffffffff1602179055508173ffffffffffffffffffffffffffffffffffffffff168173ffffffffffffffffffffffffffffffffffffffff167f8be0079c531659141344cd1fd0a4f28419497f9722a3daafe3b4186f6b6457e060405160405180910390a35050565b5f81519050919050565b7f4e487b71000000000000000000000000000000000000000000000000000000005f52604160045260245ffd5b7f4e487b71000000000000000000000000000000000000000000000000000000005f52602260045260245ffd5b5f600282049050600182168061026157607f821691505b6020821081036102745761027361021d565b5b50919050565b5f819050815f5260205f209050919050565b5f6020601f8301049050919050565b5f82821b905092915050565b5f600883026102d67fffffffffffffffffffffffffffffffffffffffffffffffffffffffffffffffff8261029b565b6102e0868361029b565b95508019841693508086168417925050509392505050565b5f819050919050565b5f819050919050565b5f61032461031f61031a846102f8565b610301565b6102f8565b9050919050565b5f819050919050565b61033d8361030a565b6103516103498261032b565b8484546102a7565b825550505050565b5f90565b610365610359565b610370818484610334565b505050565b5b81811015610393576103885f8261035d565b600181019050610376565b5050565b601f8211156103d8576103a98161027a565b6103b28461028c565b810160208510156103c1578190505b6103d56103cd8561028c565b830182610375565b50505b505050565b5f82821c905092915050565b5f6103f85f19846008026103dd565b1980831691505092915050565b5f61041083836103e9565b9150826002028217905092915050565b610429826101e6565b67ffffffffffffffff811115610442576104416101f0565b5b61044c825461024a565b610457828285610397565b5f60209050601f831160018114610488575f8415610476578287015190505b6104808582610405565b8655506104e7565b601f1984166104968661027a565b5f5b828110156104bd57848901518255600182019150602085019450602081019050610498565b868310156104da57848901516104d6601f8916826103e9565b8355505b6001600288020188555050505b505050505050565b5f73ffffffffffffffffffffffffffffffffffffffff82169050919050565b5f610518826104ef565b9050919050565b6105288161050e565b82525050565b5f6020820190506105415f83018461051f565b92915050565b613080806105545f395ff3fe608060405234801561000f575f80fd5b506004361061018c575f3560e01c806382afd23b116100dc578063a22cb46511610095578063e46d717f1161006f578063e46d717f146104bd578063e985e9c5146104ed578063f2fde38b1461051d578063ff17aca4146105395761018c565b8063a22cb46514610455578063b88d4fde14610471578063c87b56dd1461048d5761018c565b806382afd23b146103815780638da5cb5b146103b15780638ff29cfe146103cf57806395d89b41146103ff57806396c782931461041d57806399fc65d4146104395761018c565b806323b872dd11610149578063513856c811610123578063513856c8146102e35780636352211e1461031757806370a0823114610347578063715018a6146103775761018c565b806323b872dd146102765780632ee691a31461029257806342842e0e146102c75761018c565b806301ffc9a714610190578063042324b6146101c057806306fdde03146101f0578063081812fc1461020e578063095ea7b31461023e57806311ba6b4a1461025a575b5f80fd5b6101aa60048036038101906101a59190612212565b610569565b6040516101b79190612257565b60405180910390f35b6101da60048036038101906101d591906122ca565b61064a565b6040516101e7919061230d565b60405180910390f35b6101f8610690565b6040516102059190612396565b60405180910390f35b610228600480360381019061022391906123e0565b61071f565b604051610235919061241a565b60405180910390f35b61025860048036038101906102539190612433565b61073a565b005b610274600480360381019061026f91906123e0565b610750565b005b610290600480360381019061028b9190612471565b6107b3565b005b6102ac60048036038101906102a791906123e0565b6108b2565b6040516102be969594939291906124d9565b60405180910390f35b6102e160048036038101906102dc9190612471565b6108ea565b005b6102fd60048036038101906102f891906123e0565b610909565b60405161030e959493929190612538565b60405180910390f35b610331600480360381019061032c91906123e0565b610a72565b60405161033e919061241a565b60405180910390f35b610361600480360381019061035c91906122ca565b610a83565b60405161036e919061230d565b60405180910390f35b61037f610b39565b005b61039b600480360381019061039691906123e0565b610b4c565b6040516103a89190612257565b60405180910390f35b6103b9610b75565b6040516103c6919061241a565b60405180910390f35b6103e960048036038101906103e491906122ca565b610b9d565b6040516103f69190612257565b60405180910390f35b610407610bba565b6040516104149190612396565b60405180910390f35b610437600480360381019061043291906125eb565b610c4a565b005b610453600480360381019061044e9190612662565b610e5b565b005b61046f600480360381019061046a9190612662565b610ebb565b005b61048b600480360381019061048691906127cc565b610ed1565b005b6104a760048036038101906104a291906123e0565b610ef6565b6040516104b49190612396565b60405180910390f35b6104d760048036038101906104d291906122ca565b610f5c565b6040516104e4919061230d565b60405180910390f35b6105076004803603810190610502919061284c565b610f71565b6040516105149190612257565b60405180910390f35b610537600480360381019061053291906122ca565b610fff565b005b610553600480360381019061054e9190612928565b611083565b604051610560919061230d565b60405180910390f35b5f7f80ac58cd000000000000000000000000000000000000000000000000000000007bffffffffffffffffffffffffffffffffffffffffffffffffffffffff1916827bffffffffffffffffffffffffffffffffffffffffffffffffffffffff1916148061063357507f5b5e139f000000000000000000000000000000000000000000000000000000007bffffffffffffffffffffffffffffffffffffffffffffffffffffffff1916827bffffffffffffffffffffffffffffffffffffffffffffffffffffffff1916145b806106435750610642826112b2565b5b9050919050565b5f600a5f8373ffffffffffffffffffffffffffffffffffffffff1673ffffffffffffffffffffffffffffffffffffffff1681526020019081526020015f20549050919050565b60605f805461069e906129cb565b80601f01602080910402602001604051908101604052809291908181526020018280546106ca906129cb565b80156107155780601f106106ec57610100808354040283529160200191610715565b820191905f5260205f20905b8154815290600101906020018083116106f857829003601f168201915b5050505050905090565b5f6107298261131b565b50610733826113a1565b9050919050565b61074c82826107476113da565b6113e1565b5050565b6107586113f3565b5f60085f8381526020019081526020015f206004015f6101000a81548160ff021916908315150217905550807fc2fb7f8575ac3990e70361684edfc4d283931ea9a03dfa28766bf376a3934aa260405160405180910390a250565b5f73ffffffffffffffffffffffffffffffffffffffff168273ffffffffffffffffffffffffffffffffffffffff1603610823575f6040517f64a0ae9200000000000000000000000000000000000000000000000000000000815260040161081a919061241a565b60405180910390fd5b5f61083683836108316113da565b61147a565b90508373ffffffffffffffffffffffffffffffffffffffff168173ffffffffffffffffffffffffffffffffffffffff16146108ac578382826040517f64283d7b0000000000000000000000000000000000000000000000000000000081526004016108a3939291906129fb565b60405180910390fd5b50505050565b6009602052805f5260405f205f91509050805f0154908060010154908060020154908060030154908060040154908060050154905086565b61090483838360405180602001604052805f815250610ed1565b505050565b6008602052805f5260405f205f91509050805f015f9054906101000a900473ffffffffffffffffffffffffffffffffffffffff169080600101805461094d906129cb565b80601f0160208091040260200160405190810160405280929190818152602001828054610979906129cb565b80156109c45780601f1061099b576101008083540402835291602001916109c4565b820191905f5260205f20905b8154815290600101906020018083116109a757829003601f168201915b5050505050908060020180546109d9906129cb565b80601f0160208091040260200160405190810160405280929190818152602001828054610a05906129cb565b8015610a505780601f10610a2757610100808354040283529160200191610a50565b820191905f5260205f20905b815481529060010190602001808311610a3357829003601f168201915b505050505090806003015490806004015f9054906101000a900460ff16905085565b5f610a7c8261131b565b9050919050565b5f8073ffffffffffffffffffffffffffffffffffffffff168273ffffffffffffffffffffffffffffffffffffffff1603610af4575f6040517f89c62b64000000000000000000000000000000000000000000000000000000008152600401610aeb919061241a565b60405180910390fd5b60035f8373ffffffffffffffffffffffffffffffffffffffff1673ffffffffffffffffffffffffffffffffffffffff1681526020019081526020015f20549050919050565b610b416113f3565b610b4a5f611685565b565b5f60085f8381526020019081526020015f206004015f9054906101000a900460ff169050919050565b5f60065f9054906101000a900473ffffffffffffffffffffffffffffffffffffffff16905090565b600b602052805f5260405f205f915054906101000a900460ff1681565b606060018054610bc9906129cb565b80601f0160208091040260200160405190810160405280929190818152602001828054610bf5906129cb565b8015610c405780601f10610c1757610100808354040283529160200191610c40565b820191905f5260205f20905b815481529060010190602001808311610c2357829003601f168201915b5050505050905090565b600b5f3373ffffffffffffffffffffffffffffffffffffffff1673ffffffffffffffffffffffffffffffffffffffff1681526020019081526020015f205f9054906101000a900460ff1680610cd15750610ca2610b75565b73ffffffffffffffffffffffffffffffffffffffff163373ffffffffffffffffffffffffffffffffffffffff16145b610d10576040517f08c379a0000000000000000000000000000000000000000000000000000000008152600401610d0790612a7a565b60405180910390fd5b5f73ffffffffffffffffffffffffffffffffffffffff16610d3086611748565b73ffffffffffffffffffffffffffffffffffffffff1603610d86576040517f08c379a0000000000000000000000000000000000000000000000000000000008152600401610d7d90612ae2565b60405180910390fd5b5f60095f8781526020019081526020015f20905084815f015f828254610dac9190612b2d565b92505081905550838160010181905550806003015f815480929190610dd090612b6e565b91905055508115610df557806004015f815480929190610def90612b6e565b91905055505b8060020154831115610e0b578281600201819055505b428160050181905550857f07ef6edca7f49f745f5259b3de5844a2603930710f7493ac0f3f48cc4f212f42825f01548686604051610e4b93929190612bb5565b60405180910390a2505050505050565b610e636113f3565b80600b5f8473ffffffffffffffffffffffffffffffffffffffff1673ffffffffffffffffffffffffffffffffffffffff1681526020019081526020015f205f6101000a81548160ff0219169083151502179055505050565b610ecd610ec66113da565b8383611781565b5050565b610edc8484846107b3565b610ef0610ee76113da565b8585858561195a565b50505050565b6060610f018261131b565b505f610f0b611b06565b90505f815111610f295760405180602001604052805f815250610f54565b80610f3384611b1c565b604051602001610f44929190612c24565b6040516020818303038152906040525b915050919050565b600a602052805f5260405f205f915090505481565b5f60055f8473ffffffffffffffffffffffffffffffffffffffff1673ffffffffffffffffffffffffffffffffffffffff1681526020019081526020015f205f8373ffffffffffffffffffffffffffffffffffffffff1673ffffffffffffffffffffffffffffffffffffffff1681526020019081526020015f205f9054906101000a900460ff16905092915050565b6110076113f3565b5f73ffffffffffffffffffffffffffffffffffffffff168173ffffffffffffffffffffffffffffffffffffffff1603611077575f6040517f1e4fbdf700000000000000000000000000000000000000000000000000000000815260040161106e919061241a565b60405180910390fd5b61108081611685565b50565b5f80600a5f3373ffffffffffffffffffffffffffffffffffffffff1673ffffffffffffffffffffffffffffffffffffffff1681526020019081526020015f205414611103576040517f08c379a00000000000000000000000000000000000000000000000000000000081526004016110fa90612c91565b60405180910390fd5b60075f81548092919061111590612b6e565b91905055505f600754905061112a3382611be6565b6040518060a001604052803373ffffffffffffffffffffffffffffffffffffffff1681526020018481526020018581526020014281526020016001151581525060085f8381526020019081526020015f205f820151815f015f6101000a81548173ffffffffffffffffffffffffffffffffffffffff021916908373ffffffffffffffffffffffffffffffffffffffff16021790555060208201518160010190816111d49190612e4c565b5060408201518160020190816111ea9190612e4c565b50606082015181600301556080820151816004015f6101000a81548160ff02191690831515021790555090505080600a5f3373ffffffffffffffffffffffffffffffffffffffff1673ffffffffffffffffffffffffffffffffffffffff1681526020019081526020015f20819055503373ffffffffffffffffffffffffffffffffffffffff16817f0d063c6022bff16d09991a9f91882ffa112f5fb2529136f65eb4c77bbd047e43866040516112a09190612396565b60405180910390a38091505092915050565b5f7f01ffc9a7000000000000000000000000000000000000000000000000000000007bffffffffffffffffffffffffffffffffffffffffffffffffffffffff1916827bffffffffffffffffffffffffffffffffffffffffffffffffffffffff1916149050919050565b5f8061132683611748565b90505f73ffffffffffffffffffffffffffffffffffffffff168173ffffffffffffffffffffffffffffffffffffffff160361139857826040517f7e27328900000000000000000000000000000000000000000000000000000000815260040161138f919061230d565b60405180910390fd5b80915050919050565b5f60045f8381526020019081526020015f205f9054906101000a900473ffffffffffffffffffffffffffffffffffffffff169050919050565b5f33905090565b6113ee8383836001611c03565b505050565b6113fb6113da565b73ffffffffffffffffffffffffffffffffffffffff16611419610b75565b73ffffffffffffffffffffffffffffffffffffffff16146114785761143c6113da565b6040517f118cdaa700000000000000000000000000000000000000000000000000000000815260040161146f919061241a565b60405180910390fd5b565b5f8061148584611748565b90505f73ffffffffffffffffffffffffffffffffffffffff168373ffffffffffffffffffffffffffffffffffffffff16146114c6576114c5818486611dc2565b5b5f73ffffffffffffffffffffffffffffffffffffffff168173ffffffffffffffffffffffffffffffffffffffff1614611551576115055f855f80611c03565b600160035f8373ffffffffffffffffffffffffffffffffffffffff1673ffffffffffffffffffffffffffffffffffffffff1681526020019081526020015f205f82825403925050819055505b5f73ffffffffffffffffffffffffffffffffffffffff168573ffffffffffffffffffffffffffffffffffffffff16146115d057600160035f8773ffffffffffffffffffffffffffffffffffffffff1673ffffffffffffffffffffffffffffffffffffffff1681526020019081526020015f205f82825401925050819055505b8460025f8681526020019081526020015f205f6101000a81548173ffffffffffffffffffffffffffffffffffffffff021916908373ffffffffffffffffffffffffffffffffffffffff160217905550838573ffffffffffffffffffffffffffffffffffffffff168273ffffffffffffffffffffffffffffffffffffffff167fddf252ad1be2c89b69c2b068fc378daa952ba7f163c4a11628f55a4df523b3ef60405160405180910390a4809150509392505050565b5f60065f9054906101000a900473ffffffffffffffffffffffffffffffffffffffff1690508160065f6101000a81548173ffffffffffffffffffffffffffffffffffffffff021916908373ffffffffffffffffffffffffffffffffffffffff1602179055508173ffffffffffffffffffffffffffffffffffffffff168173ffffffffffffffffffffffffffffffffffffffff167f8be0079c531659141344cd1fd0a4f28419497f9722a3daafe3b4186f6b6457e060405160405180910390a35050565b5f60025f8381526020019081526020015f205f9054906101000a900473ffffffffffffffffffffffffffffffffffffffff169050919050565b5f73ffffffffffffffffffffffffffffffffffffffff168373ffffffffffffffffffffffffffffffffffffffff16036117f1575f6040517fa9fbf51f0000000000000000000000000000000000000000000000000000000081526004016117e8919061241a565b60405180910390fd5b5f73ffffffffffffffffffffffffffffffffffffffff168273ffffffffffffffffffffffffffffffffffffffff160361186157816040517f5b08ba18000000000000000000000000000000000000000000000000000000008152600401611858919061241a565b60405180910390fd5b8060055f8573ffffffffffffffffffffffffffffffffffffffff1673ffffffffffffffffffffffffffffffffffffffff1681526020019081526020015f205f8473ffffffffffffffffffffffffffffffffffffffff1673ffffffffffffffffffffffffffffffffffffffff1681526020019081526020015f205f6101000a81548160ff0219169083151502179055508173ffffffffffffffffffffffffffffffffffffffff168373ffffffffffffffffffffffffffffffffffffffff167f17307eab39ab6107e8899845ad3d59bd9653f200f220920489ca2b5937696c318360405161194d9190612257565b60405180910390a3505050565b5f8373ffffffffffffffffffffffffffffffffffffffff163b1115611aff578273ffffffffffffffffffffffffffffffffffffffff1663150b7a02868685856040518563ffffffff1660e01b81526004016119b89493929190612f6d565b6020604051808303815f875af19250505080156119f357506040513d601f19601f820116820180604052508101906119f09190612fcb565b60015b611a74573d805f8114611a21576040519150601f19603f3d011682016040523d82523d5f602084013e611a26565b606091505b505f815103611a6c57836040517f64a0ae92000000000000000000000000000000000000000000000000000000008152600401611a63919061241a565b60405180910390fd5b805160208201fd5b63150b7a0260e01b7bffffffffffffffffffffffffffffffffffffffffffffffffffffffff1916817bffffffffffffffffffffffffffffffffffffffffffffffffffffffff191614611afd57836040517f64a0ae92000000000000000000000000000000000000000000000000000000008152600401611af4919061241a565b60405180910390fd5b505b5050505050565b606060405180602001604052805f815250905090565b60605f6001611b2a84611e85565b0190505f8167ffffffffffffffff811115611b4857611b476126a8565b5b6040519080825280601f01601f191660200182016040528015611b7a5781602001600182028036833780820191505090505b5090505f82602083010190505b600115611bdb578080600190039150507f3031323334353637383961626364656600000000000000000000000000000000600a86061a8153600a8581611bd057611bcf612ff6565b5b0494505f8503611b87575b819350505050919050565b611bff828260405180602001604052805f815250611fd6565b5050565b8080611c3b57505f73ffffffffffffffffffffffffffffffffffffffff168273ffffffffffffffffffffffffffffffffffffffff1614155b15611d6d575f611c4a8461131b565b90505f73ffffffffffffffffffffffffffffffffffffffff168373ffffffffffffffffffffffffffffffffffffffff1614158015611cb457508273ffffffffffffffffffffffffffffffffffffffff168173ffffffffffffffffffffffffffffffffffffffff1614155b8015611cc75750611cc58184610f71565b155b15611d0957826040517fa9fbf51f000000000000000000000000000000000000000000000000000000008152600401611d00919061241a565b60405180910390fd5b8115611d6b57838573ffffffffffffffffffffffffffffffffffffffff168273ffffffffffffffffffffffffffffffffffffffff167f8c5be1e5ebec7d5bd14f71427d1e84f3dd0314c0f7b2291e5b200ac8c7c3b92560405160405180910390a45b505b8360045f8581526020019081526020015f205f6101000a81548173ffffffffffffffffffffffffffffffffffffffff021916908373ffffffffffffffffffffffffffffffffffffffff16021790555050505050565b611dcd838383611ff9565b611e80575f73ffffffffffffffffffffffffffffffffffffffff168373ffffffffffffffffffffffffffffffffffffffff1603611e4157806040517f7e273289000000000000000000000000000000000000000000000000000000008152600401611e38919061230d565b60405180910390fd5b81816040517f177e802f000000000000000000000000000000000000000000000000000000008152600401611e77929190613023565b60405180910390fd5b505050565b5f805f90507a184f03e93ff9f4daa797ed6e38ed64bf6a1f0100000000000000008310611ee1577a184f03e93ff9f4daa797ed6e38ed64bf6a1f0100000000000000008381611ed757611ed6612ff6565b5b0492506040810190505b6d04ee2d6d415b85acef81000000008310611f1e576d04ee2d6d415b85acef81000000008381611f1457611f13612ff6565b5b0492506020810190505b662386f26fc100008310611f4d57662386f26fc100008381611f4357611f42612ff6565b5b0492506010810190505b6305f5e1008310611f76576305f5e1008381611f6c57611f6b612ff6565b5b0492506008810190505b6127108310611f9b576127108381611f9157611f90612ff6565b5b0492506004810190505b60648310611fbe5760648381611fb457611fb3612ff6565b5b0492506002810190505b600a8310611fcd576001810190505b80915050919050565b611fe083836120b9565b611ff4611feb6113da565b5f85858561195a565b505050565b5f8073ffffffffffffffffffffffffffffffffffffffff168373ffffffffffffffffffffffffffffffffffffffff16141580156120b057508273ffffffffffffffffffffffffffffffffffffffff168473ffffffffffffffffffffffffffffffffffffffff16148061207157506120708484610f71565b5b806120af57508273ffffffffffffffffffffffffffffffffffffffff16612097836113a1565b73ffffffffffffffffffffffffffffffffffffffff16145b5b90509392505050565b5f73ffffffffffffffffffffffffffffffffffffffff168273ffffffffffffffffffffffffffffffffffffffff1603612129575f6040517f64a0ae92000000000000000000000000000000000000000000000000000000008152600401612120919061241a565b60405180910390fd5b5f61213583835f61147a565b90505f73ffffffffffffffffffffffffffffffffffffffff168173ffffffffffffffffffffffffffffffffffffffff16146121a7575f6040517f73c6ac6e00000000000000000000000000000000000000000000000000000000815260040161219e919061241a565b60405180910390fd5b505050565b5f604051905090565b5f80fd5b5f80fd5b5f7fffffffff0000000000000000000000000000000000000000000000000000000082169050919050565b6121f1816121bd565b81146121fb575f80fd5b50565b5f8135905061220c816121e8565b92915050565b5f60208284031215612227576122266121b5565b5b5f612234848285016121fe565b91505092915050565b5f8115159050919050565b6122518161223d565b82525050565b5f60208201905061226a5f830184612248565b92915050565b5f73ffffffffffffffffffffffffffffffffffffffff82169050919050565b5f61229982612270565b9050919050565b6122a98161228f565b81146122b3575f80fd5b50565b5f813590506122c4816122a0565b92915050565b5f602082840312156122df576122de6121b5565b5b5f6122ec848285016122b6565b91505092915050565b5f819050919050565b612307816122f5565b82525050565b5f6020820190506123205f8301846122fe565b92915050565b5f81519050919050565b5f82825260208201905092915050565b8281835e5f83830152505050565b5f601f19601f8301169050919050565b5f61236882612326565b6123728185612330565b9350612382818560208601612340565b61238b8161234e565b840191505092915050565b5f6020820190508181035f8301526123ae818461235e565b905092915050565b6123bf816122f5565b81146123c9575f80fd5b50565b5f813590506123da816123b6565b92915050565b5f602082840312156123f5576123f46121b5565b5b5f612402848285016123cc565b91505092915050565b6124148161228f565b82525050565b5f60208201905061242d5f83018461240b565b92915050565b5f8060408385031215612449576124486121b5565b5b5f612456858286016122b6565b9250506020612467858286016123cc565b9150509250929050565b5f805f60608486031215612488576124876121b5565b5b5f612495868287016122b6565b93505060206124a6868287016122b6565b92505060406124b7868287016123cc565b9150509250925092565b5f819050919050565b6124d3816124c1565b82525050565b5f60c0820190506124ec5f8301896124ca565b6124f960208301886122fe565b61250660408301876122fe565b61251360608301866122fe565b61252060808301856122fe565b61252d60a08301846122fe565b979650505050505050565b5f60a08201905061254b5f83018861240b565b818103602083015261255d818761235e565b90508181036040830152612571818661235e565b905061258060608301856122fe565b61258d6080830184612248565b9695505050505050565b6125a0816124c1565b81146125aa575f80fd5b50565b5f813590506125bb81612597565b92915050565b6125ca8161223d565b81146125d4575f80fd5b50565b5f813590506125e5816125c1565b92915050565b5f805f805f60a08688031215612604576126036121b5565b5b5f612611888289016123cc565b9550506020612622888289016125ad565b9450506040612633888289016123cc565b9350506060612644888289016123cc565b9250506080612655888289016125d7565b9150509295509295909350565b5f8060408385031215612678576126776121b5565b5b5f612685858286016122b6565b9250506020612696858286016125d7565b9150509250929050565b5f80fd5b5f80fd5b7f4e487b71000000000000000000000000000000000000000000000000000000005f52604160045260245ffd5b6126de8261234e565b810181811067ffffffffffffffff821117156126fd576126fc6126a8565b5b80604052505050565b5f61270f6121ac565b905061271b82826126d5565b919050565b5f67ffffffffffffffff82111561273a576127396126a8565b5b6127438261234e565b9050602081019050919050565b828183375f83830152505050565b5f61277061276b84612720565b612706565b90508281526020810184848401111561278c5761278b6126a4565b5b612797848285612750565b509392505050565b5f82601f8301126127b3576127b26126a0565b5b81356127c384826020860161275e565b91505092915050565b5f805f80608085870312156127e4576127e36121b5565b5b5f6127f1878288016122b6565b9450506020612802878288016122b6565b9350506040612813878288016123cc565b925050606085013567ffffffffffffffff811115612834576128336121b9565b5b6128408782880161279f565b91505092959194509250565b5f8060408385031215612862576128616121b5565b5b5f61286f858286016122b6565b9250506020612880858286016122b6565b9150509250929050565b5f67ffffffffffffffff8211156128a4576128a36126a8565b5b6128ad8261234e565b9050602081019050919050565b5f6128cc6128c78461288a565b612706565b9050828152602081018484840111156128e8576128e76126a4565b5b6128f3848285612750565b509392505050565b5f82601f83011261290f5761290e6126a0565b5b813561291f8482602086016128ba565b91505092915050565b5f806040838503121561293e5761293d6121b5565b5b5f83013567ffffffffffffffff81111561295b5761295a6121b9565b5b612967858286016128fb565b925050602083013567ffffffffffffffff811115612988576129876121b9565b5b612994858286016128fb565b9150509250929050565b7f4e487b71000000000000000000000000000000000000000000000000000000005f52602260045260245ffd5b5f60028204905060018216806129e257607f821691505b6020821081036129f5576129f461299e565b5b50919050565b5f606082019050612a0e5f83018661240b565b612a1b60208301856122fe565b612a28604083018461240b565b949350505050565b7f4e6f7420617574686f72697a65640000000000000000000000000000000000005f82015250565b5f612a64600e83612330565b9150612a6f82612a30565b602082019050919050565b5f6020820190508181035f830152612a9181612a58565b9050919050565b7f4167656e74206e6f7420666f756e6400000000000000000000000000000000005f82015250565b5f612acc600f83612330565b9150612ad782612a98565b602082019050919050565b5f6020820190508181035f830152612af981612ac0565b9050919050565b7f4e487b71000000000000000000000000000000000000000000000000000000005f52601160045260245ffd5b5f612b37826124c1565b9150612b42836124c1565b92508282019050828112155f8312168382125f841215161715612b6857612b67612b00565b5b92915050565b5f612b78826122f5565b91507fffffffffffffffffffffffffffffffffffffffffffffffffffffffffffffffff8203612baa57612ba9612b00565b5b600182019050919050565b5f606082019050612bc85f8301866124ca565b612bd560208301856122fe565b612be260408301846122fe565b949350505050565b5f81905092915050565b5f612bfe82612326565b612c088185612bea565b9350612c18818560208601612340565b80840191505092915050565b5f612c2f8285612bf4565b9150612c3b8284612bf4565b91508190509392505050565b7f416c7265616479207265676973746572656400000000000000000000000000005f82015250565b5f612c7b601283612330565b9150612c8682612c47565b602082019050919050565b5f6020820190508181035f830152612ca881612c6f565b9050919050565b5f819050815f5260205f209050919050565b5f6020601f8301049050919050565b5f82821b905092915050565b5f60088302612d0b7fffffffffffffffffffffffffffffffffffffffffffffffffffffffffffffffff82612cd0565b612d158683612cd0565b95508019841693508086168417925050509392505050565b5f819050919050565b5f612d50612d4b612d46846122f5565b612d2d565b6122f5565b9050919050565b5f819050919050565b612d6983612d36565b612d7d612d7582612d57565b848454612cdc565b825550505050565b5f90565b612d91612d85565b612d9c818484612d60565b505050565b5b81811015612dbf57612db45f82612d89565b600181019050612da2565b5050565b601f821115612e0457612dd581612caf565b612dde84612cc1565b81016020851015612ded578190505b612e01612df985612cc1565b830182612da1565b50505b505050565b5f82821c905092915050565b5f612e245f1984600802612e09565b1980831691505092915050565b5f612e3c8383612e15565b9150826002028217905092915050565b612e5582612326565b67ffffffffffffffff811115612e6e57612e6d6126a8565b5b612e7882546129cb565b612e83828285612dc3565b5f60209050601f831160018114612eb4575f8415612ea2578287015190505b612eac8582612e31565b865550612f13565b601f198416612ec286612caf565b5f5b82811015612ee957848901518255600182019150602085019450602081019050612ec4565b86831015612f065784890151612f02601f891682612e15565b8355505b6001600288020188555050505b505050505050565b5f81519050919050565b5f82825260208201905092915050565b5f612f3f82612f1b565b612f498185612f25565b9350612f59818560208601612340565b612f628161234e565b840191505092915050565b5f608082019050612f805f83018761240b565b612f8d602083018661240b565b612f9a60408301856122fe565b8181036060830152612fac8184612f35565b905095945050505050565b5f81519050612fc5816121e8565b92915050565b5f60208284031215612fe057612fdf6121b5565b5b5f612fed84828501612fb7565b91505092915050565b7f4e487b71000000000000000000000000000000000000000000000000000000005f52601260045260245ffd5b5f6040820190506130365f83018561240b565b61304360208301846122fe565b939250505056fea2646970667358221220542a2038f8c3991dce7e8eab2badd03634de6d6d32f875a5dc6bea6ad4079ee164736f6c634300081a0033",
  "linkReferences": {},
  "deployedLinkReferences": {}
}